:1000000000800020BD010000214D0000E54C0000F3
:10001000E54C0000E54C0000E54C0000E54C00001C
:10002000E54C0000E54C0000E54C0000214D0000CF
:10003000214D0000E54C0000214D0000D54C000092
:10004000214D0000214D0000214D0000214D0000F8
:10005000214D0000214D0000214D0000214D0000E8
:10006000214D0000214D0000214D0000214D0000D8
:10007000214D0000214D0000214D0000214D0000C8
:10008000214D0000214D0000214D0000214D0000B8
:10009000214D0000214D0000214D0000214D0000A8
:1000A000214D0000214D0000214D0000214D000098
:1000B000214D0000214D0000214D0000214D000088
:1000C000214D0000214D0000214D0000214D000078
:1000D000214D0000214D0000214D0000214D000068
:1000E000214D0000214D0000214D0000214D000058
:1000F000214D000045680000214D0000A96F00005F
:10010000214D000025750000214D0000214D00000B
:10011000214D0000214D0000214D0000214D000027
:10012000214D0000214D0000214D0000214D000017
:10013000214D0000214D0000214D0000214D000007
:10014000214D0000214D0000214D0000214D0000F7
:10015000214D0000214D0000214D0000214D0000E7
:10016000214D0000ED510000214D0000214D000007
:10017000214D0000214D0000214D0000214D0000C7
:10018000214D0000214D0000214D0000214D0000B7
:10019000214D0000214D0000214D0000214D0000A7
:1001A000214D0000214D0000214D0000214D000097
:1001B000214D0000214D0000214D0000574B4CF215
:1001C000205210B51A804DF628121A8000BF00BFC9
:1001D00004F0AAFD524B4FF010621A60514A9A6027
:1001E000514ADA60A3F53043203B1A6812F480725A
:1001F00004D14E490A604FF4A8521A604C4B1A7849
:10020000110703D51A7842F008021A70494B4A4C7C
:100210004A482A221A704A4A00239918A14203D256
:10022000195899500433F8E7464B474900228B424E
:1002300002D243F8042BFAE74448454900235A58B0
:100240001A500433B3F5DE7FF9D1424B424A802184
:1002500003F8011B9342FBD1404B3C4A1A60404BD0
:100260008A221A70A3F5805324225A70A0221A7091
:100270009A799207FCD59A79D406FCD4394A9379B5
:1002800003F00C03082B374BF9D103221A714022DB
:100290005A719A799006FCD5324A9179314B4906C8
:1002A000FBD5314A314911600221516020221A7078
:1002B0009A7902F00C020C2AFAD12D4B2D4A1A60C1
:1002C0002D4B2E4A1A6000225A60072243F8042C54
:1002D0002B4AC3F80C2D62B604F048FE134B1B6882
:1002E000DA0705D5274804F087FD274B274A1A600F
:1002F000274B1B785B0609D5234C244A236893427D
:1003000004D1204804F078FD0023236007F056FC58
:1003100004F010FD04F03CFCFEE700BF0E20054099
:1003200030800440823F04000100002B14D00340C1
:1003300002D0074000E007405C90FF1FEC8A0000FD
:100340006087FF1F5C90FF1F1CA8FF1F0082FF1F1C
:100350000000000000E400E05FE400E008ED00E0E1
:100360000050064000400640448004400000030165
:1003700004800440C010050014E000E0FF76010096
:10038000000020205E0E0A5A1CE00340A5C3945AC8
:1003900000F00740FFFFFFFFFFFFFFFFFFFFFFFF32
:1003A000FFFFFFFFFFFFFFFFFFFFFFFFFFFFFFFF5D
:1003B000FFFFFFFFFFFFFFFFFFFFFFFFFFFFFFFF4D
:1003C000FFFFFFFFFFFFFFFFFFFFFFFFFFFFFFFF3D
:1003D000FFFFFFFFFFFFFFFFFFFFFFFFFFFFFFFF2D
:1003E000FFFFFFFFFFFFFFFFFFFFFFFFFFFFFFFF1D
:1003F000FFFFFFFFFFFFFFFFFFFFFFFFFFFFFFFF0D
:10040000FFFFFFFFFFFFFFFFFFFFFFFFDEF9FFFF23
:1004100010B5054C237833B9044B13B10448AFF33E
:1004200000800123237010BD5C90FF1F00000000BE
:10043000EC8A000008B5064B1BB106480649AFF32D
:1004400000800648036813B1054B03B1984708BD07
:1004500000000000EC8A00006090FF1F5C90FF1F0E
:1004600000000000014B0360704700BFB085000032
:1004700010B50446FFF7F6FF204604F097FC20462F
:1004800010BD00BF014B0360704700BFB085000086
:1004900008B50A4B1B783BB11220002104F0EEFC9A
:1004A0000022064B1A7006E01220012104F0E6FC3F
:1004B0000122024B1A70014B187808BD7890FF1F7B
:1004C00008B539B11220012104F0D8FC0122054BF6
:1004D0001A7008BD1220002104F0D0FC0022014B4C
:1004E0001A7008BD7890FF1F074B1B68834207D323
:1004F000064B1B68984205D3044B186001207047D7
:1005000000207047002070477C90FF1F8090FF1FE5
:1005100010B50446114B40F8043B02F093FA04F185
:100520000800FFF7AFFF04F10C0002F063F904F1DB
:100530004C0002F05FF904F18C0002F05BF904F169
:10054000CC0002F057F904F5867002F053F904F577
:10055000A67002F04FF9204610BD00BFC085000014
:1005600082B00023054A1360054A1360054B1B68DF
:100570000193019A044B1A6002B070478490FF1FE8
:100580008090FF1F00A5FF1F8890FF1F82B0054BC2
:100590001B680193019A044B1B68D21A034B1A6023
:1005A00002B0704700A5FF1F8890FF1F7C90FF1FBF
:1005B00038B50446051D284604F10C0102F0A8FADE
:1005C000284604F14C0102F0A3FA284604F18C01FC
:1005D00002F09EFA284604F1CC0102F099FA28466E
:1005E00004F5867102F094FA284604F5A67102F02B
:1005F0008FFA38BD38B504464FF47A70FFF774FFB0
:1006000038B12046FFF7D4FF04F108000021FFF7BE
:1006100057FF4FF4FA60FFF767FF78B1201D04F52C
:10062000A67102F029FF002384F8583184F81831AC
:1006300084F8983084F8D83084F8583042F210703A
:10064000FFF752FF48B1201D04F5A67102F014FF18
:1006500004F108000121FFF733FF42F6E060FFF7E5
:1006600043FF50B1251D284604F5A67102F004FF92
:10067000284604F5867102F0E9FC43F2BC40FFF71E
:1006800033FF78B1251D284604F5A67102F0F4FE6B
:10069000284604F5867102F03BFA284604F18C01E5
:1006A00002F0D4FC43F69820FFF71EFF78B1251D19
:1006B000284604F5A67102F0DFFE284604F18C01FD
:1006C00002F026FA284604F14C0102F0BFFC44F285
:1006D0007400FFF709FF78B1251D284604F5A671BF
:1006E00002F0CAFE284604F14C0102F011FA284635
:1006F00004F1CC0102F0AAFC44F25060FFF7F4FED2
:10070000C8B1251D284604F5A67102F0B5FE28469D
:1007100004F5867102F0A4FA284604F18C0102F077
:100720009FFA284604F1CC0102F09AFA284604F117
:100730004C0102F095FA44F25060FFF7D5FEC8B1C3
:10074000251D284604F5A67102F096FE284604F5FC
:10075000867102F085FA284604F18C0102F080FAD5
:10076000284604F1CC0102F07BFA284604F14C0142
:1007700002F076FA46F66050FFF7B6FEF0B1251D9E
:10078000284604F5A67102F0C3F9284604F58671DF
:1007900002F066FA284604F18C0102F061FA28465C
:1007A00004F1CC0102F05CFA284604F14C0102F09D
:1007B00057FA284604F10C0102F052FA094B1A6864
:1007C000094B9A420CD9094B1A68074B9A4207D831
:1007D000074A064B1A602046FFF7EAFEFFF7C0FE05
:1007E00038BD00BF7C90FF1F7FA903008490FF1FCE
:1007F00080A90300704700BF4B6803618B684361A9
:100800000B7B03760B69C3614B6903628B6943629F
:10081000CB6983620B6AC3624B6A03638B6A43636F
:1008200091F82C3080F838300B6BC36391F834307A
:1008300080F8403091F8353080F8413091F836300A
:1008400080F8423091F8373080F843308B6B436446
:10085000CB6B8364704700BF4B6803658B6843654F
:100860000B7B80F858300B69C3654B6903668B6955
:100870004366CB6983660B6AC3664B6A03678B6A00
:10088000436791F82C3080F878300B6BC36791F890
:10089000343080F8803091F8353080F8813091F82C
:1008A000363080F8823091F8373080F883308B6BA7
:1008B000C0F88430CB6BC0F8883070474B68C0F804
:1008C00090308B68C0F894300B7B80F898300B69BF
:1008D000C0F89C304B69C0F8A0308B69C0F8A430D8
:1008E000CB69C0F8A8300B6AC0F8AC304B6AC0F8CE
:1008F000B0308B6AC0F8B43091F82C3080F8B83042
:100900000B6BC0F8BC3091F8343080F8C03091F8EF
:10091000353080F8C13091F8363080F8C23091F827
:10092000373080F8C3308B6BC0F8C430CB6BC0F865
:10093000C83070474B68C0F8D0308B68C0F8D430EE
:100940000B7B80F8D8300B69C0F8DC304B69C0F8FD
:10095000E0308B69C0F8E430CB69C0F8E8300B6A4E
:10096000C0F8EC304B6AC0F8F0308B6AC0F8F43055
:1009700091F82C3080F8F8300B6BC0F8FC3091F80F
:10098000343080F8003191F8353080F8013191F839
:10099000363080F8023191F8373080F803318B6BB4
:1009A000C0F80431CB6BC0F8083170474B68C0F811
:1009B00010318B68C0F814310B7B80F818310B694B
:1009C000C0F81C314B69C0F820318B69C0F8243164
:1009D000CB69C0F828310B6AC0F82C314B6AC0F8DB
:1009E00030318B6AC0F8343191F82C3080F83831CE
:1009F0000B6BC0F83C3191F8343080F8403191F8FD
:100A0000353080F8413191F8363080F8423191F834
:100A1000373080F843318B6BC0F84431CB6BC0F872
:100A2000483170474B68C0F850318B68C0F854317A
:100A30000B7B80F858310B69C0F85C314B69C0F80A
:100A400060318B69C0F86431CB69C0F868310B6ADA
:100A5000C0F86C314B6AC0F870318B6AC0F87431E1
:100A600091F82C3080F878310B6BC0F87C3191F81C
:100A7000343080F8803191F8353080F8813191F848
:100A8000363080F8823191F8373080F883318B6BC3
:100A9000C0F88431CB6BC0F888317047704700BF15
:100AA00010B50446114B036000F5A67001F092FEEC
:100AB00004F5867001F08EFE04F1CC0001F08AFE90
:100AC00004F18C0001F086FE04F14C0001F082FE7E
:100AD00004F10C0001F07EFE04F10800FFF7C2FCF7
:100AE000201D01F0F3FE204610BD00BFC0850000B0
:100AF00010B50446FFF7D4FF204604F057F920460E
:100B000010BD00BF4069704710B582B00A4600238F
:100B10008DF800308DF801308DF8023004682468BB
:100B20008DF804308DF805308DF80630694601AB3C
:100B3000A04702B010BD00BF00207047704700BF43
:100B40002DE9F04784B006460C464D688369CBB961
:100B500005EB4507FF00384607F058F8F0613846C6
:100B600007F054F83062022004F018F90746326AA0
:100B7000F36900210091294603F09EF9B7613846D8
:100B800003F0B0F9F269A368002B40F3238104F16C
:100B90002001A44600274CF6CC4E11E19869484448
:100BA000407828B194F80DA080FA5AF0C0B200E065
:100BB000384608FB00F0001205F8010F04338B42A1
:100BC000ECD1029D039880EAD01303F0AA13584099
:100BD00080EAC31383EA933808EA0E0888EA03031D
:100BE00083EA883885EAD51303F0AA135D4085EAC5
:100BF000C31383EA933000EA0E00434083EA803057
:100C000008F0F035030903F00F332B4300F00F30E9
:100C10004FEA081808F0F03848EA0000D071050AD9
:100C20009571050C5571000E1071D370180A9070F3
:100C3000180C50701B0E1370D4F8009094F81280AA
:100C400008F101080DF107056346986919F80000DD
:100C500028B194F80CA080FA5AF0C0B200E03846EF
:100C600008FB00F0001205F8010F04338B42ECD1B1
:100C7000029D039880EAD01303F0AA13584080EA3B
:100C8000C31383EA933808EA0E0888EA030383EA69
:100C9000883885EAD51303F0AA135D4085EAC313AB
:100CA00083EA933000EA0E00434083EA803008F084
:100CB000F035030903F00F332B4300F00F304FEAF8
:100CC000081808F0F03848EA0000D073050A957358
:100CD000050C5573000E1073D372180A9072180C1D
:100CE00050721B0E1372D4F800A094F8149009F1FE
:100CF00001090DF10708634698695044857825B1CC
:100D0000A07B85FA50F5EDB200E03D4609FB05F504
:100D10002D1208F8015F04338B42EDD1029D039838
:100D200080EAD01303F0AA13584080EAC31383EA81
:100D3000933808EA0E0888EA030383EA883885EACC
:100D4000D51303F0AA135D4085EAC31383EA9330F9
:100D500000EA0E00434083EA803008F0F0350309D2
:100D600003F00F332B4300F00F304FEA081808F060
:100D7000F03848EA0000D075050A9575050C5575E0
:100D8000000E1075D374180A9074180C50741B0E52
:100D900013741832E07B237BC31A2373207C637B9C
:100DA000C31A6373607CA37BC31AA37394F9150001
:100DB000236803442360A368013BA360002B09DD83
:100DC000D4F8009094F8138008F101080DF107059C
:100DD0006346E3E6B06903F04FFA04B0BDE8F0877C
:100DE000F0B58FB0847C00910192029219788DF851
:100DF000121059788DF813109B788DF81430012C4F
:100E00003AD131490B78013303F007030B7003F03B
:100E10000106F60113F0020F1CBF46F04006F6B2C1
:100E200013F0040F18BF46F020061036F6B20DF18D
:100E3000110305AF4FF0000E4FF4807C01331C46C8
:100E4000197821B19CFBF1F10131C9B200E0714682
:100E500004F8031C01FB0665C5F3072515B904F862
:100E600006EC02E0013D04F8065C11B1013904F81A
:100E7000031CBB42E2D10CE000238DF811308DF849
:100E800010308DF80F308DF80E308DF80D308DF854
:100E90000C3003238DF8153002EB420205AC002321
:100EA0001946012644F8041F06FA03F515F0FF0F52
:100EB00018BF89180133082BF4D103689B69694670
:100EC00098470FB0F0BD00BF8C90FF1FF0B58FB0FA
:100ED000847C0091019202921A788DF812205A783F
:100EE0008DF813209B788DF81430012C39D12B4AC2
:100EF0001378013303F00703137003F00105ED01CC
:100F000013F0020F1CBF45F04005EDB213F0040FC3
:100F100018BF45F020051035EDB20DF1110305AEF7
:100F200000274FF4807E013319461A7822B19EFBC8
:100F3000F2F20132D2B200E03A4601F8032C02FB91
:100F40000554C4F3072414B901F8067C02E0013CFF
:100F500001F8064C12B1013A01F8032CB342E2D178
:100F60000CE000238DF811308DF810308DF80F3023
:100F70008DF80E308DF80D308DF80C3000238DF883
:100F8000153005AB0DA9002243F8042F8B42FBD18D
:100F900003689B69694698470FB0F0BD8C90FF1FAE
:100FA00010B51C4BDC681C4B1B6813F0010F26D1DD
:100FB000194803F0C9FE10B3184B00215960FF22F5
:100FC0001A735A739A73DA731A745A7401229A74E0
:100FD00059619960124B1B6813B9104A104B1A6083
:100FE000104B1B680BB10D4A9A600C4B0D4A1360F5
:100FF0000D4A1A6000229A61074803F0ABFE0748C9
:101000002146AA22002303F083FA084B1A68084BF2
:101010001A7010BDD090FF1FB490FF1F9090FF1F5B
:10102000E4A4FF1FF4A4FF1FD08500006487FF1F06
:10103000D4A4FF1F70B582B005460C46084603F0E5
:101040000FFC0346002850D0204603F03BFC90B133
:10105000274C23685B68204626490C229847204687
:1010600003F0FAFC244B1B680093009A41F29803AA
:10107000EA50002339E0204603F01AFC002831D062
:1010800041F29803EB58002B2ED01B4A12680192B4
:10109000019EF61A002241F29803EA50144C23688C
:1010A0005B68204615490B229847204603F0D4FC84
:1010B000B6F5FA7F0AD223685B68204610490522FC
:1010C0009847204603F0C8FC01230EE0084C236833
:1010D0005B6820460B4904229847204603F0BCFC7D
:1010E000022302E0002300E00023184602B070BD96
:1010F000E8A5FF1FF085000000A5FF1F0086000087
:101100000C8600001486000030B585B005460C46FC
:10111000084603F0A5FB204603F0D4FB90B1224C17
:1011200023685B68204621490C229847204603F03B
:1011300093FC1F4B1B680193019A41F29803EA50FC
:1011400000232DE041F29803EB5893B1204603F0C1
:1011500063FB034668B941F29802AA5802B31449E6
:101160000968029102998A1AB2F5FA7F88BF0223B0
:1011700016E0204603F09CFB78B10D4B1B680393EF
:10118000039A41F29803EB58D31AB3F5FA7F06D3CA
:10119000002341F29802AB5002E0002300E001235B
:1011A000184605B030BD00BFE8A5FF1FF085000060
:1011B00000A5FF1F70B584B004462A4B1B6813F0CE
:1011C000010F0ED1274803F0BFFD50B1264B1B681D
:1011D0000193019A254B1A6064225A60214803F05A
:1011E000B9FD214B1B6803930399204B1A688A1A97
:1011F0005B689A4233D31C4B1B680293029A1B4BC9
:101200001A6041F2AC03E3580A33C82B03DC41F205
:10121000AC02A35003E0002241F2AC03E250144DB3
:101220002B685B68284613490D229847284603F02F
:1012300013FC41F2AC062846A15903F059FCA3590E
:1012400041F2EC02A35041F22C12A35041F26C1275
:10125000A35041F2AC12A35041F2EC12A35004B0DF
:1012600070BD00BFB890FF1F00A5FF1FC490FF1FF7
:10127000E8A5FF1F1C86000010B584B004463D4B56
:101280001B6813F0010F0ED13A4803F05DFD50B119
:10129000394B1B680193019A384B1A600A225A6035
:1012A000344803F057FD344B1B6803930399334BC9
:1012B0001A688A1A5B689A4259D32F4B1B680293AB
:1012C000029A2E4B1A6041F2D203E25C013204F51D
:1012D000845341F2D101615C013183F8511083F8EC
:1012E000522041F21213E25C013204F5865341F2BE
:1012F0001111615C013183F8511083F8522041F2E1
:101300005213E25C013204F5885341F25111615CE1
:10131000013183F8511083F8522041F29213E25CBC
:10132000013204F58A5341F29111615C013183F875
:10133000511083F8522041F2D213E25C013204F5DD
:101340008C5341F2D111615C013183F8511083F863
:10135000522041F21223E25C013204F58E5341F235
:101360001121615C013183F8511083F8522004B0DF
:1013700010BD00BF80A4FF1F00A5FF1F84A4FF1F96
:1013800041F25403C358072B00F21681DFE803F043
:1013900004042B5279A0C7EE00F58451A02281F8F5
:1013A0005120002381F8523000F5865181F85120F8
:1013B00081F8523000F5885181F8512081F852307F
:1013C00000F58A5181F8512081F8523000F58C5196
:1013D00081F8512081F8523000F58E5080F851206C
:1013E00080F85230704700F58451602281F8512016
:1013F000C02381F8523000F5865181F8512081F8E0
:10140000523000F5885181F8512081F8523000F5B2
:101410008A5181F8512081F8523000F58C5181F8C1
:10142000512081F8523000F58E5080F8512080F81C
:101430005230704700F58451202281F8512040231A
:1014400081F8523000F5865181F8512081F85230F0
:1014500000F5885181F8512081F8523000F58A5109
:1014600081F8512081F8523000F58C5181F85120DB
:1014700081F8523000F58E5080F8512080F85230BB
:10148000704700F58451E02281F85120202381F833
:10149000523000F5865181F8512081F8523000F524
:1014A000885181F8512081F8523000F58A5181F835
:1014B000512081F8523000F58C5181F8512081F88B
:1014C000523000F58E5080F8512080F8523070472D
:1014D00000F58451C02281F85120802381F85230D8
:1014E00000F5865181F8512081F8523000F588517D
:1014F00081F8512081F8523000F58A5181F851204D
:1015000081F8523000F58C5181F8512081F8523029
:1015100000F58E5080F8512080F85230704700F569
:101520008451002281F85120E02381F8523000F5E7
:10153000865181F8512081F8523000F5885181F8A8
:10154000512081F8523000F58A5181F8512081F8FC
:10155000523000F58C5181F8512081F8523000F55D
:101560008E5080F8512080F85230704700F5845139
:10157000402281F85120A02381F8523000F5865195
:1015800081F8512081F8523000F5885181F85120BE
:1015900081F8523000F58A5181F8512081F852309B
:1015A00000F58C5181F8512081F8523000F58E50B1
:1015B00080F8512080F85230704700BF41F24C0350
:1015C000C3580A2B3DD1002341F2A412835041F2AB
:1015D000D1128354A02241F2D211425441F2D311CC
:1015E000435441F22411435041F25111435441F20A
:1015F0005211425441F25311435441F2A401435059
:1016000041F2D101435441F2D201425441F2D3019B
:10161000435441F26411435041F29111435441F259
:101620009211425441F29311435441F2E401435068
:1016300041F21111435441F21211425441F213127A
:101640008354704770B584B0044600F58451083166
:10165000FFF75AFD012802D002282AD036E0814D3A
:101660002B685B68284680491B229847284603F070
:10167000F3F92B685B6828467C491C22984728466A
:1016800003F0EAF941F25403E3580133072B03DC7A
:1016900041F25402A35003E0002241F25403E2500D
:1016A000704841F25403E15803F022FA2046FFF754
:1016B00067FE6C4D2B685B6828466D493122984760
:1016C000284603F0C9F92046FFF7D6FD204604F569
:1016D00082511831FFF718FD012802D0022841D0AD
:1016E0004AE0604D2B685B68284662491F22984794
:1016F000284603F0B1F9604B1B6813F0010F12D1BB
:101700005D4803F021FB70B15C4B1B6801930199AC
:101710005B4B5C4AA2FB010292091A8003225A80A9
:10172000554803F017FB554B1B6803930399554B22
:10173000A3FB0121524B1A88C2EB91115A888BB23C
:101740009A4219D84D4B1B680293029A4D4BA3FB4A
:10175000020292094A4B1A8004F580500430FEF7C9
:1017600097FE09E03F4D2B685B68284646491E22DC
:101770009847284603F070F9204604F58351083154
:10178000FFF7C2FC012802D0022827D033E0354DF4
:101790002B685B6828463D491F229847284603F07E
:1017A0005BF92B685B68284639491D229847284613
:1017B00003F052F9374B1B681E33962B02DC354A77
:1017C000136002E01E22334B1A60324D254829680F
:1017D00003F08EF92A68304B1A700CE0214D2B680B
:1017E0005B6828462D490B229847284603F034F9B8
:1017F0002046FFF7DFFC204604F583511831FFF740
:1018000019FC012802D0022817D029E041F24C0629
:10181000A3590133A3512046FFF7D0FE114D2B6889
:101820005B6828461E491C229847284603F014F995
:101830002846A15903F05CF912E041F24C06A35985
:10184000013BA351074D2B685B68284615491D22B3
:101850009847284603F000F92846A15903F048F9B3
:1018600004B070BDE8A5FF1F2C860000488600006C
:10187000688600009C8600007CA4FF1F00A5FF1F57
:10188000CC90FF1FD34D6210BC860000DC860000A8
:10189000FC8600006487FF1FD4A4FF1F1C87000084
:1018A0002887000048870000012908DD0123013353
:1018B0008B42FCD1AA2303FB01F1AA3900E00021ED
:1018C00001EB4101C0680844704700BF08B541F210
:1018D0003402815841F21C028258FFF7E5FF08BD2F
:1018E00008B541F23802815841F230028258FFF7C0
:1018F000DBFF08BD08B500F5815241F23C014158BB
:101900001268FFF7D1FF08BD08B500F582521168D3
:1019100041F224028258FFF7C7FF08BD08B541F223
:101920004402815841F228028258FFF7BDFF08BDEA
:1019300008B541F24802815841F22C028258FFF763
:10194000B3FF08BD08B410B583B002AB03E90600CD
:10195000009A019B13F0010F05D000EB630441F2E4
:101960001C2161588A5800F590501C3000EB630030
:101970000599904703B0BDE8104001B0704700BF23
:1019800070B582B0044641F24C03C3581B2B04DDF2
:10199000002241F24C03C25030E0002B04DA1B223B
:1019A00041F24C03C250CCE341F24C03C358212B0B
:1019B00000F2C783DFE813F0220027005800800000
:1019C000A800CA00EC000E01300152017401990117
:1019D000BB01DD01FF012102430265028702A9026A
:1019E000CB02ED020F033103530375039703C503C5
:1019F000C503C503C503C503C503B90304F5915069
:101A0000FEF7F8FD9DE300F590551C35284604F5DA
:101A10008E511C3101F07CF8284604F58C511C31A4
:101A200041F2D103E25C01F0A3FA41F251162846DB
:101A300004F588511C31A25D01F09AFA284604F59C
:101A40008A511C31A25D01F093FA284604F58651B3
:101A50001C31A25D01F08CFA284604F584511C313A
:101A6000A25D01F085FA6CE300F590551C3528461F
:101A700004F58E511C3101F04BF8284604F58451D1
:101A80001C3101F0ABF9284604F588511C3101F0F6
:101A9000A5F9284604F58A511C3101F09FF9284622
:101AA00004F586511C3101F099F9284604F58C5152
:101AB0001C3101F093F944E300F590551C3528469C
:101AC00004F58E511C3101F023F8284604F58451A9
:101AD0001C3101F02DF8284604F588511C3101F025
:101AE00027F8284604F58A511C3101F021F82846D0
:101AF00004F586511C3101F01BF8284604F58C5181
:101B00001C3101F015F81CE300F590551C352846F2
:101B100004F584511C3101F021F8284604F5885160
:101B20001C3101F01BF8284604F58A511C3101F0E4
:101B300015F8284604F586511C3101F00FF82846A7
:101B400004F58C511C3101F009F8FAE200F59055CA
:101B50001C35284604F584511C3101F077FA2846DB
:101B600004F588511C3101F071FA284604F58A51B8
:101B70001C3101F06BFA284604F586511C3101F046
:101B800065FA284604F58C511C3101F05FFAD8E261
:101B900000F590551C35284604F584511C3101F0A0
:101BA000A7FA284604F588511C3101F0A1FA28460D
:101BB00004F58A511C3101F09BFA284604F5865140
:101BC0001C3101F095FA284604F58C511C3101F0C6
:101BD0008FFAB6E200F590551C35284604F584517D
:101BE0001C3101F08DFE284604F588511C3101F0AE
:101BF00087FE284604F58A511C3101F081FE2846F3
:101C000004F586511C3101F07BFE284604F58C5109
:101C10001C3101F075FE94E200F590551C35284604
:101C200004F584511C3101F0DDFB284604F5885190
:101C30001C3101F0D7FB284604F58A511C3101F014
:101C4000D1FB284604F586511C3101F0CBFB284618
:101C500004F58C511C3101F0C5FB72E200F5905582
:101C60001C35284604F584511C3101F04DFB2846F3
:101C700004F588511C3101F047FB284604F58A51D0
:101C80001C3101F041FB284604F586511C3101F05E
:101C90003BFB284604F58C511C3101F035FB50E22A
:101CA00000F590551C35284604F58C511C3101F087
:101CB00049FF284604F588511C3101F043FF2846AE
:101CC00004F58A511C3101F03DFF284604F5865188
:101CD0001C3101F037FF284604F584511C3101F016
:101CE00031FF142003F02CF92BE200F590551C3540
:101CF000284604F58C511C3101F06EFC284604F591
:101D000088511C3101F068FC284604F58A511C31C9
:101D100001F062FC284604F586511C3101F05CFCA0
:101D2000284604F584511C3101F056FC09E200F507
:101D300090551C35284604F58C511C3101F09CFB54
:101D4000284604F588511C3101F096FB284604F51D
:101D50008A511C3101F090FB284604F586511C3154
:101D600001F08AFB284604F584511C3101F084FB04
:101D7000E7E100F590551C35284604F584511C31E7
:101D800000F0C6FE284604F58C511C3100F0C0FE60
:101D9000284604F588511C3100F0BAFE284604F5A7
:101DA0008A511C3100F0B4FE284604F586511C31DE
:101DB00001F03EFFC5E100F590551C35284604F5BD
:101DC0008C511C3102F000F8284604F588511C3172
:101DD00001F0FAFF284604F58A511C3101F0F4FFA6
:101DE000284604F586511C3101F0EEFF284604F523
:101DF00084511C3101F0E8FFA3E100F590551C353A
:101E0000284604F58C511C3101F0D6FD284604F516
:101E100088511C3101F0D0FD284604F58A511C314F
:101E200001F0CAFD284604F586511C3101F0C4FDBD
:101E3000284604F584511C3101F0BEFD81E100F516
:101E400090551C35284604F58C511C3101F042FB9D
:101E5000284604F588511C3101F03CFB284604F566
:101E60008A511C3101F036FB284604F586511C319D
:101E700001F030FB284604F584511C3101F02AFBA7
:101E80005FE100F590551C35284604F58C511C3156
:101E900001F064FB284604F586511C3101F05EFB1D
:101EA000284604F588511C3101F058FB284604F5FA
:101EB0008A511C3101F052FB284604F584511C3133
:101EC00001F04CFB3DE100F590551C35284604F52A
:101ED0008C511C3101F0C0FD284604F586511C319F
:101EE00001F0BAFD284604F588511C3101F0B4FD1B
:101EF000284604F58A511C3101F0AEFD284604F550
:101F000084511C3101F0A8FD1BE100F590551C35F2
:101F1000284604F584511C3101F04AF8284604F59E
:101F200086511C3101F044F8284604F588511C31D3
:101F300001F03EF8284604F58A511C3101F038F8CA
:101F4000284604F58C511C3101F032F8F9E000F517
:101F500090551C35284604F584511C3101F04AF88F
:101F6000284604F586511C3101F044F8284604F552
:101F700088511C3101F03EF8284604F58A511C3185
:101F800001F038F8284604F58C511C3101F032F884
:101F9000D7E000F590551C35284604F584511C31D6
:101FA00001F0A0FD284604F586511C3101F09AFD90
:101FB000284604F588511C3101F094FD284604F5AB
:101FC0008A511C3101F08EFD284604F58C511C31DC
:101FD00001F088FDB5E000F590551C35284604F564
:101FE00084511C3100F042FF284604F586511C3113
:101FF00000F03CFF284604F588511C3100F036FF04
:10200000284604F58A511C3100F030FF284604F5BB
:102010008C511C3100F02AFF93E000F590551C35DF
:10202000284604F584511C3101F018FB284604F5BC
:1020300086511C3101F012FB284604F588511C31F1
:1020400001F00CFB284604F58A511C3101F006FB17
:10205000284604F58C511C3101F000FB71E000F5BD
:1020600090551C35284604F584511C3101F0DEFBE7
:10207000284604F586511C3101F0D8FB284604F5AA
:1020800088511C3101F0D2FB284604F58A511C31DD
:1020900001F0CCFB284604F58C511C3101F0C6FB45
:1020A0004FE000F590551C35284604F584511C314D
:1020B00000F0D0FC284604F586511C3100F0CAFC23
:1020C000284604F588511C3100F0C4FC284604F56C
:1020D0008A511C3100F0BEFC284604F58C511C319D
:1020E00000F0B8FC2DE000F590551C35284604F5AD
:1020F00084511C3100F0B4FD284604F586511C3192
:1021000000F0AEFD284604F588511C3100F0A8FD12
:10211000284604F58A511C3100F0A2FD284604F53A
:102120008C511C3100F09CFD0BE0074B0093002309
:10213000019302AB13E9060004F58C531C33FFF73F
:1021400001FC02B070BD00BF612C000010B584B06E
:102150000446FFF777FA1A4B1B6813F0010F10D1F2
:10216000174802F0F1FD60B141F2AC03E258154BA3
:102170001B6801930199144B19605A60104802F0D2
:10218000E9FD104B1B68039303990F4B1A688A1AD9
:102190005B689A4211D30B4B1B680293029A0A4B5D
:1021A0001A602046FFF7ECFB04F590501C3000F05D
:1021B0004FFC04F59150FEF7E9F904B010BD00BFE3
:1021C0008CA4FF1F00A5FF1FBC90FF1F08B504488B
:1021D000FFF7BCFF034B1846197802F01DF908BD44
:1021E000D090FF1FD4A4FF1F2DE9F04FE5B00446A7
:1021F000CF4B0360012303714FF4AA63836000F1A6
:102200001402C26000F5805004302061013BFDD112
:10221000FEF738F9162141F208002150132341F24C
:102220000C02A350172341F210002350112341F256
:102230001402A350012341F218002350A82341F2B5
:102240001C02A35004F581523F23136041F2240085
:10225000235041F22802A350072341F22C002350BF
:102260003E2241F230002250052041F23402A050BB
:10227000042041F23802A05041F23C02A35004F580
:1022800082534FF0020BC3F800B0062241F2440320
:10229000E250032241F24803E25041F24C03002293
:1022A000E250142241F25003E25041F25403002064
:1022B000E05004F5825018301E2202F097FA04F51F
:1022C0008350083041F20C02A15C1E2202F08EFA0B
:1022D00004F58350183041F21003E15C1E2202F035
:1022E00085FA04F58450083041F21402A15C1E22E4
:1022F00002F07CFA41F298030020E05004F5845A81
:102300000AF11C0A504600F075FA04F5865909F1E5
:102310001C09484600F06EFA04F5885808F11C08BC
:10232000404600F067FA04F58A571C37384600F03B
:1023300061FA04F58C561C36304600F05BFA04F561
:102340008E551C35284600F055FA04F590521C3283
:102350000192104600F076FB04F591530093184665
:10236000FEF7D6F841F20802A05C594602F086FD5D
:1023700041F20C03E05C594602F080FD41F210028C
:10238000A05C594602F07AFD41F21403E05C594624
:1023900002F074FD41F21802A05C002102F06EFD13
:1023A000DFF890B15846FFF791FA014603A841F2D1
:1023B0001C035BF8032000F03DFA049BCAF80430CC
:1023C000059BCAF808309DF818308AF80C30079B36
:1023D000CAF81030089BCAF81430099BCAF81830A4
:1023E0000A9BCAF81C300B9BCAF820300C9BCAF819
:1023F00024300D9BCAF828309DF838308AF82C30EC
:102400000F9BCAF830309DF840308AF834309DF880
:1024100041308AF835309DF842308AF836309DF8E0
:1024200043308AF83730119BCAF83830129BCAF80B
:102430003C3003A800F0CEF95846FFF751FA0146A8
:1024400013A841F230035BF8032000F0F3F9149B6A
:10245000C9F80430159BC9F808309DF8583089F840
:102460000C30179BC9F81030189BC9F81430199B11
:10247000C9F818301A9BC9F81C301B9BC9F82030CA
:102480001C9BC9F824301D9BC9F828309DF8783072
:1024900089F82C301F9BC9F830309DF8803089F8BE
:1024A00034309DF8813089F835309DF8823089F8D4
:1024B00036309DF8833089F83730219BC9F83830A1
:1024C000229BC9F83C3013A800F084F95846FFF766
:1024D00011FA01460BF5815323A81A6800F0AAF9F6
:1024E000249BC8F80430259BC8F808309DF8983024
:1024F00088F80C30279BC8F81030289BC8F8143097
:10250000299BC8F818302A9BC8F81C302B9BC8F8A8
:1025100020302C9BC8F824302D9BC8F828309DF81B
:10252000B83088F82C302F9BC8F8303004E000BF5A
:1025300070870000D090FF1F9DF8C03088F83430BD
:102540009DF8C13088F835309DF8C23088F83630B3
:102550009DF8C33088F83730319BC8F83830329B4B
:10256000C8F83C3023A800F035F95846FFF7CCF9FD
:10257000014633A841F224035BF8032000F05AF926
:10258000349B7B60359BBB609DF8D8303B73379B99
:102590003B61389B7B61399BBB613A9BFB613B9BF9
:1025A0003B623C9B7B623D9BBB629DF8F83087F8A9
:1025B0002C303F9B3B639DF8003187F834309DF809
:1025C000013187F835309DF8023187F836309DF8B3
:1025D000033187F83730419BBB63429BFB6333A8D1
:1025E00000F0F8F85846FFF799F9014643A841F280
:1025F00028035BF8032000F01DF9449B7360459BA2
:10260000B3609DF818313373479B3361489B736106
:10261000499BB3614A9BF3614B9B33624C9B736252
:102620004D9BB3629DF8383186F82C304F9B336355
:102630009DF8403186F834309DF8413186F83530C8
:102640009DF8423186F836309DF8433186F83730B0
:10265000519BB363529BF36343A800F0BBF8584609
:10266000FFF766F9014653A841F22C035BF80320FB
:1026700000F0E0F8549B6B60559BAB609DF85831BF
:102680002B73579B2B61589B6B61599BAB615A9B7A
:10269000EB615B9B2B625C9B6B625D9BAB629DF80D
:1026A000783185F82C305F9B2B639DF8803185F85D
:1026B00034309DF8813185F835309DF8823185F8C8
:1026C00036309DF8833185F83730619BAB63629B70
:1026D000EB6353A800F07EF800980199FEF78AF8A2
:1026E00000985146FEF788F800984946FEF7B4F87E
:1026F00000984146FEF7E2F800983946FEF71AF9CD
:1027000000983146FEF752F900982946FEF78AF9FB
:1027100064AD074B45F8043D00982946FEF7BEF925
:102720002846FDF79FFE204665B0BDE8F08F00BF4C
:10273000B085000010B5054C2046FFF755FD20463A
:102740000349044A05F02AFA10BD00BFD090FF1FCC
:10275000592700006087FF1F10B50446174B036020
:1027600000F59150FEF79CF904F590501C3000F0F4
:10277000ADF804F58E501C3000F02CF804F58C50A8
:102780001C3000F027F804F58A501C3000F022F8C5
:1027900004F588501C3000F01DF804F586501C30FC
:1027A00000F018F804F584501C3000F013F804F51C
:1027B00080500430FDF756FE204610BD70870000A3
:1027C00010B50446FFF7C8FF204602F0EFFA204696
:1027D00010BD00BF014B0360704700BF8087000041
:1027E00010B50446FFF7F6FF204602F0DFFA204658
:1027F00010BD00BF10B40E4A026000224260826029
:10280000FF2101731424046142618261C26102628A
:102810004262826280F82C1080F8342080F83520E3
:1028200080F8362080F83720C2635DF8044B70478B
:10283000808700002DE9F041054617461F4B0360D5
:1028400000238360FF22027314202861EB612B6256
:102850006B62AB6285F82C2085F8343085F8353012
:1028600085F8363085F83730EB63A9636F6007EB86
:10287000D7735B106B61124B3B4003D5013B63F098
:1028800001030133AB61B7F1FE5F94BFB8004FF0B5
:10289000FF3002F087FA2863002F0BDD00244FF091
:1028A0000C082E6B404602F07DFA46F824000134F5
:1028B000BC42F6D12846BDE8F08100BF8087000009
:1028C00001000080806B704740687047014B0360D7
:1028D000704700BFA887000010B50446FFF7F6FF59
:1028E000204602F063FA204610BD00BFF0B419B9CB
:1028F0001A605A609A60A1E0C1F1FF0102FB01F188
:1029000009124F4C84FB00540444C517C5EB6414F2
:10291000052C00F28F80DFE804F0031029415B737F
:10292000541A00FB04F0464E86FB00760644C0179E
:10293000C0EB66160E4417467DE0561A404C84FBE9
:1029400000750544C717C7EB6515C5EB0515A0EB6A
:102950008500C0F13C0000FB06F084FB00570744F3
:10296000C017C0EB67170F44164664E0561A344C84
:1029700084FB00750544C717C7EB6515C5EB051546
:10298000A0EB850000FB06F084FB00540444C01754
:10299000C0EB641016460F4601444CE0561A284C12
:1029A00084FB00750544C717C7EB6515C5EB051516
:1029B000A0EB8500C0F13C0000FB06F084FB005654
:1029C0000644C017C0EB66160E440F46114632E0AF
:1029D000561A1B4C84FB00750544C717C7EB6515D9
:1029E000C5EB0515A0EB850000FB06F084FB005746
:1029F0000744C017C0EB67170F440E4611461AE094
:102A0000561A0F4C84FB00750544C717C7EB6515B4
:102A1000C5EB0515A0EB8500C0F13C0000FB06F0FE
:102A200084FB00540444C017C0EB64100E460144FC
:102A3000174600E000211F605E609960F0BC70479F
:102A400089888888014B0360704700BFA887000011
:102A5000704700BF2DE9F04383B00C460846FFF7EE
:102A600031FF05462046FFF72FFF81B228460A2294
:102A700001F0B6FD2046FFF727FF0746234E3388B7
:102A800003EB432503EB850543F219694D44ADB2D1
:102A900035802046FFF716FF8046BFB205FB07F7DB
:102AA0003F0C07EB4707C51994F83510328802EB45
:102AB000422302EB83034B449BB2338003EB23237B
:102AC000C3F385030B448DF80430C8238DF805301B
:102AD000FF238DF8063001A8694601F0E5FD9DF859
:102AE000002018F8073083FA52F308F807309DF8F1
:102AF00001206B7883FA52F36B709DF80220AB785B
:102B000083FA52F3AB7003B0BDE8F0836A87FF1F0E
:102B100038B50C460846FFF7D5FE05462046FFF7B8
:102B2000D3FE81B228460A2201F05AFD38BD00BF0B
:102B300038B50C460846FFF7C5FE05462046FFF7A8
:102B4000C3FE0146284694F83520072301F008FD0E
:102B500094F83530013384F8353038BD2DE9F04F25
:102B600091B00F463A4C04F14000002303AE54F8F4
:102B7000042F110C9955F518110A6970AA700333C6
:102B80008442F4D1334B1B680293029B324A02FB0E
:102B900003F2120ED3B213F0400F50D0DB43DBB27E
:102BA00003F03F0103F00F0301332C4809114900E2
:102BB0004418647803FB04F3415C01EB2313DBB29C
:102BC00012F0800F18BF5B42DBB283F0800303EB8F
:102BD00043034FEAA30B0BF1400B5FFA8BFB00257D
:102BE0002C464FF0010A24E03846FFF76BFE814681
:102BF00004EB440800EB080697F835305A19C3EB8C
:102C00000B0305EB85010B44CDF800A00FA803A929
:102C1000D2B2DBB201F0EAFC9DF83C3009F8083092
:102C20009DF83D3073709DF83E30B370013402352D
:102C3000EDB23846FFF748FE8442D5DB04E003F0EE
:102C40003F0103F00F03B0E711B0BDE8F08F00BF04
:102C5000B487000000A5FF1F00D043009887000044
:102C60002DE9F04F85B089460846FFF72BFE044654
:102C70004846FFF729FE81B22046142201F0B0FC3D
:102C800007244FF00008DFF8D4B0DFF8D4A048469E
:102C9000FFF718FE07464846FFF716FEFF2C9ABFBF
:102CA00023029BB22346DBF800200192019A4FF4E5
:102CB0008C7101FB02F203FB02F2120C91B2C1F320
:102CC000CA0301F4804189B219B1C3F5FF63073328
:102CD0009BB2190A1AF80160C3F346031E4D35F87A
:102CE000111006FB0316B6B212F4004F18BF76425D
:102CF000B6B286F4004680B200FB0666360C06EBE0
:102D00004606BD198DF80C80C8238DF80D30FF23C1
:102D10008DF80E3003A802A901F0C6FC9DF808301A
:102D2000BA5D9A4238BFBB559DF809306A789A421D
:102D300038BF6B709DF80A30AA789A4238BFAB70E2
:102D400008F120085FFA88F80134A4B20F2C9ED154
:102D500005B0BDE8F08F00BF8887000000A5FF1F09
:102D6000B087000038B50D461B4C238803EB432188
:102D700003EB810303F5585319339BB2238003EB14
:102D80002323DBB29A4225D92846FFF79BFD044650
:102D90002846FFF799FD104A138803EB432103EB04
:102DA000810303F5585319339BB2138080B203FBA0
:102DB00000F31A0C02EB4202A318FF21A05C80FA78
:102DC00051F0A0545A7882FA51F25A709A7882FAE5
:102DD00051F29A7038BD00BF6A87FF1F38B50546AB
:102DE0000C46FFF7A5FE284621465022FFF7BAFF02
:102DF00094F83530013384F8353038BD10B51446B9
:102E00006AB14869904205D18B69012B01D101302B
:102E100010BD2BB10846FFF757FD001B10BD002069
:102E200010BD00BF10B54B699C18934206DC0846E4
:102E3000FFF74AFD94FBF0F303FB1044204610BD5E
:102E400010B514460846FFF73FFD0138A042CCBF3D
:102E5000601C002010BD00BF08B5002A01DD501E17
:102E600008BD0846FFF730FD013808BD2DE9F843DD
:102E70000D460024274626464FF064084FF0FF0910
:102E800016E03046414601F079FE322817DD28462B
:102E9000FFF718FD00F804902846FFF713FD2044C3
:102EA00086702846FFF70EFD204446700137033434
:102EB0002846FFF709FD8742E3DBBDE8F883284693
:102EC000FFF700FD0655E7E7F8B50D4600241CE0C6
:102ED0002B6B53F824702846FFF7F4FC04EB4406F0
:102EE000835D3B602B6B53F824702846FFF7EAFCA8
:102EF000304443787B602B6B53F824702846FFF7EF
:102F0000E1FC30448378BB6001342846FFF7DCFCE9
:102F10008442DDDBF8BD00BF38B50C468D68013555
:102F20008D600846FFF7D0FC8542A4BF0023A36054
:102F300038BD00BF2DE9704F884693469A46DDF8AC
:102F4000209000240CE04046FFF7BCFC04EB440654
:102F5000851900F806B085F801A085F802900134C3
:102F60004046FFF7B1FC8442EDDBBDE8708F00BF47
:102F7000F0B583B00D4617460024FF2610E0284622
:102F8000FFF7A0FC2B7B8DF804708DF805308DF8D1
:102F9000066004EB4401014401A801F085FB013403
:102FA0002846FFF791FC8442E9DB03B0F0BD00BF87
:102FB00030B585B00C46FFF7AFFF94F834000A3007
:102FC000C0B284F83400FF210A4601ABFFF78EFC43
:102FD0002046FFF777FCA26802EB420283189DF8B7
:102FE00008509DF80C40019981545D709C7005B0AB
:102FF00030BD00BF30B583B00C460846FFF764FC17
:103000000146002001F0BAFDA0600020FF2101F080
:10301000B5FD05462046FFF755FCA16801EB4101CF
:103020000144237B8DF804508DF80530FF238DF883
:10303000063001A801F038FB034B1846197801F05F
:10304000EBF903B030BD00BFD4A4FF1F2DE9F04160
:1030500082B00D4691F8373083B98C6801348C60AA
:103060000846FFF731FC844205D1012385F837304B
:10307000AB68013BAB6095F837302BB1AB68013BD7
:10308000AB600BB985F83730002427464FF0FF08B6
:1030900025E0AE68A64212D12846FFF713FC2B7B31
:1030A00095F835208DF800208DF801308DF80280DC
:1030B00006EB46068119684601F0F6FA0EE028464E
:1030C000FFF700FC8DF804708DF805708DF8067020
:1030D00004EB4401014401A801F0E6FA013428465A
:1030E000FFF7F2FB8442D4DB02B0BDE8F08100BF01
:1030F0002DE9F04F91B004460D4691F8373083B971
:103100008E6801368E600846FFF7DEFB864205D1E9
:10311000012385F83730AB68013BAB6095F8373059
:103120002BB1AB68013BAB600BB985F8373020465B
:103130002946AA68FFF784FE0746204629463A46F4
:10314000FFF77EFE8046204629464246FFF778FE7E
:10315000834620462946AA68FFF77EFE824620461F
:1031600029465246FFF778FE009020462946009AED
:10317000FFF772FE019007EB4702029208EB48034B
:1031800004930BEB4B0205920AEB4A030693009A59
:1031900002EB4202079200EB400303930024A14696
:1031A000A8E0AE68A64213D12846FFF78BFB2B7B25
:1031B00095F835208DF820208DF82130FF238DF8EB
:1031C000223006EB4606811908A801F06DFA90E05E
:1031D000BC4212D12846FFF775FB2B7B95F83520B2
:1031E0008DF824208DF8253096238DF8263002990D
:1031F000014409A801F058FA7BE0444512D1284661
:10320000FFF760FB2B7B95F835208DF828208DF893
:10321000293050238DF82A30049901440AA801F07E
:1032200043FA66E05C4513D12846FFF74BFB2B7B46
:1032300095F835208DF82C208DF82D304FF01402A4
:103240008DF82E20059901440BA801F02DFA50E0CD
:10325000544512D12846FFF735FB2B7B95F83520D6
:103260008DF830208DF8313096238DF83230069964
:1032700001440CA801F018FA3BE0009B9C4212D1DB
:103280002846FFF71FFB2B7B95F835208DF834205F
:103290008DF8353050238DF83630079901440DA84C
:1032A00001F002FA25E0019A944213D12846FFF773
:1032B00009FB2B7B95F835208DF838208DF83930B7
:1032C0004FF014038DF83A30039901440EA801F031
:1032D000EBF90EE02846FFF7F5FA8DF83C908DF8F3
:1032E0003D908DF83E9004EB440101440FA801F09D
:1032F000DBF901342846FFF7E7FA8442FFF651AFC5
:1033000011B0BDE8F08F00BF2DE9F04385B006464F
:103310000D468C6801348C600846FFF7D5FA84426C
:10332000A4BF0023AB60AA682A6230462946FFF793
:1033300079FD686295F83510A031294A81FB022396
:1033400001EB03084FEAE818C8EB0828C8EB0108AE
:10335000002427464FF0FF0939E02E6AA64212D119
:103360002846FFF7AFFA2B7B95F835208DF804201F
:103370008DF805308DF8069006EB4606811901A8F8
:1033800001F092F922E06E6AA64210D12846FFF7BA
:1033900099FA2B7B8DF808808DF809308DF80A900A
:1033A00006EB4606811902A801F07EF90EE02846D8
:1033B000FFF788FA8DF80C708DF80D708DF80E708F
:1033C00004EB4401014403A801F06EF901342846DE
:1033D000FFF77AFA8442C0DB05B0BDE8F08300BF96
:1033E0008180808070B582B006460C468D680135BC
:1033F0008D600846FFF768FA8542A4BF0023A360EA
:10340000A268226230462146FFF70CFD606294F804
:103410003510A031174A81FB0223CD18ED11C5EB01
:1034200005254D1B2046FFF74DFA216A01EB4101AE
:103430000144237B94F835208DF800208DF801306D
:10344000FF268DF80260684601F02EF92046FFF74E
:1034500039FA616A01EB41010144237B8DF8045084
:103460008DF805308DF8066001A801F01DF902B055
:1034700070BD00BF8180808070B582B00D46002095
:10348000FF2101F07BFB06460A20642101F076FB58
:103490000020314601F072FB092819DC002412E0FB
:1034A0002846FFF70FFA2B7B95F835208DF804207E
:1034B0008DF805308DF8066004EB4403C11801A8AF
:1034C00001F0F2F801342846FFF7FEF98442E7DB09
:1034D00002B070BD30B583B00C4691F8373073B987
:1034E00091F82C300133DBB281F82C30FF2B03D163
:1034F000012381F8373002E091F8373053B194F866
:103500002C30013BDBB284F82C30012B9CBF002314
:1035100084F837300023A36017E02046FFF7D2F984
:10352000A16801EB41010144227B94F82C3094F80E
:1035300035008DF804008DF805208DF8063001A8BF
:1035400001F0B2F8A3680133A360A5682046FFF735
:10355000BBF98542E1DB03B030BD00BF70B582B07E
:103560000C4691F8373063B90B7B0133DBB20B7338
:10357000FF2B03D1012381F8373002E091F8373077
:1035800043B1237B013BDBB22373012B9CBF0023A0
:1035900084F837300023A360FF2615E02046FFF7AC
:1035A00091F9A16801EB41010144237B94F8352096
:1035B0008DF804208DF805308DF8066001A801F023
:1035C00073F8A3680133A360A5682046FFF77CF970
:1035D0008542E3DB02B070BD10B582B00C468B684B
:1035E00001338B604A699342C4BF00238B608A68B1
:1035F000CA61FFF703FC606294F82C300A3384F848
:103600002C302046FFF75EF9E16901EB41010144EE
:10361000227B94F82C3094F835008DF800008DF85A
:1036200001208DF80230684601F03EF82046FFF791
:1036300049F9616A01EB41010144227B94F82C3085
:1036400094F835008DF804008DF805208DF80630CB
:1036500001A801F029F802B010BD00BF2DE9F84F14
:1036600082460C4691F8373023B9FFF7FFFB012360
:1036700084F8373050462146FFF726FC0025A8463F
:103680002E46AB46BDE0504621463246FFF7D8FBFA
:103690000746504621463246FFF7DEFB8146236B44
:1036A00053F820201268642A40F3B7805A591268F0
:1036B000642A10DD53F827201268642A0BDD2046A7
:1036C000FFF700F900F808B0236B53F829201268BF
:1036D000642A40F3A2805A591268642A40F3998000
:1036E00053F827301B68642B00F393802046FFF7C4
:1036F000E9F800F808B0236B53F829201268642A0F
:1037000040F38B805A591268642A00F3848053F87E
:1037100027301B68642B7EDD2046FFF7D3F800F8C6
:1037200008B0236B53F829201268642A75DD5A59B2
:103730001268642A61DC53F827301B68642B5CDC58
:103740002046FFF7BFF84FF0FF3300F80830236B37
:1037500053F829201268642A4FDC5A591268642AE7
:103760005DDD53F827301B68642B58DD2046FFF7DA
:10377000A9F84FF0FF3300F80830236B53F82920E5
:103780001268642A39DC5A591268642A49DD53F8F0
:1037900027301B68642B44DC2046FFF793F84FF07A
:1037A000FF3300F80830236B53F829201268642A8D
:1037B00023DC5A591268642A35DC53F827301B6819
:1037C000642B30DD2046FFF77DF84FF0FF3300F823
:1037D0000830236B53F829201268642A0DDC5A59EB
:1037E0001268642A09DC53F827301B68642B04DC58
:1037F0002046FFF767F800F808B0013608F1030823
:1038000004352046FFF760F88642FFF63CAFBDE87E
:10381000F88F236B76E7236B89E7236B9DE7236B98
:10382000B1E7236BC5E7236BD9E700BF2DE9F04172
:1038300080460C46FFF748FBA3680133A360022BC8
:1038400002DD0023A36004E0012B11D0022B1DD068
:1038500053BB2046FFF736F8FF2303702046FFF7DF
:1038600031F8002545702046FFF72CF885701BE0E5
:103870002046FFF727F8FF2505702046FFF722F8BE
:1038800045702046FFF71EF885700DE02046FFF7D3
:1038900019F8002505702046FFF714F845702046FA
:1038A000FFF710F8FF238370012522E040462146F0
:1038B0002A46FFF7D1FA06462046FFF703F805EB44
:1038C0004507236B53F826301B68C3552046FEF787
:1038D000F9FF3844236B53F826305B684370204669
:1038E000FEF7F0FF3844236B53F826309B68837053
:1038F00001352046FEF7E8FF8542D7DBBDE8F081C1
:103900002DE9F04383B00D468C6801348C60084685
:10391000FEF7DAFF8442C4BF0023AB606A69AB687C
:10392000D31A002BB8BF5B424FF00A0999FBF3F999
:1039300009EB89094FEA4909B9F1090F05DDB9F524
:10394000FA7FA8BF4FF4FA7901E04FF00A0900248A
:1039500027464FF0FF0824E0AE68A64210D1284663
:10396000FEF7B0FF2B7B8DF804708DF805308DF8D5
:10397000068006EB4606811901A800F095FE0FE0CF
:103980002846FEF79FFF04EB440687552846FEF7BE
:1039900099FF304447702846FEF794FF3044877003
:1039A00001342846FEF790FF8442D5DB484601F0FB
:1039B000C7FA03B0BDE8F0832DE9F04782B00D46A9
:1039C00091F837302BB9012381F83730D1F80880CE
:1039D0000EE0002381F83730AA68FFF70FFA80461F
:1039E000AB680133AB606A699342C4BF0023AB602C
:1039F00008EB480A002427464FF0FF0924E044451D
:103A000011D12846FEF75EFF2B7B95F835208DF807
:103A100004208DF805308DF8069000EB0A0101A80E
:103A200000F042FE0FE02846FEF74CFF04EB440690
:103A300087552846FEF746FF304447702846FEF774
:103A400041FF3044877001342846FEF73DFF844231
:103A5000D5DB02B0BDE8F0872DE9F04182B00C461D
:103A60000025DFF87C8032E063699D4204DD20465A
:103A7000FEF72AFF401B00E02846666900FB1000A5
:103A800003F0C2FE074606FB166003F0BDFE0146CA
:103A9000384603F0C1FF414603F00AFF04F058F82E
:103AA00084F82C002046FEF70DFF227B94F82C3082
:103AB00094F835108DF804108DF805208DF8063037
:103AC00005EB4501014401A800F0EEFD013520465B
:103AD000FEF7FAFE8542C7DB02B0BDE8F08100BF09
:103AE00000007F4330B585B005460C460846FEF71A
:103AF000EBFE0146002001F041F8A0600020FF210C
:103B000001F03CF884F83400002300932846214655
:103B10001A46FFF70FFA2046FEF7D4FEA16801EB24
:103B200041010144237B94F834208DF80C208DF85A
:103B30000D30FF238DF80E3003A800F0B5FD05B061
:103B400030BD00BF2DE9F04184B007460C4691F826
:103B500037306BB34B69002B17DD0025FF2620465D
:103B6000FEF7B0FE237B94F835208DF808208DF801
:103B700009308DF80A6005EB4501014402A800F008
:103B800093FD01356369AB42E9DC284D284629786D
:103B900000F042FC00230093384621461A46FFF706
:103BA000C9F92846297800F037FC94F8373063BB10
:103BB000656905EB45064FF0FF0811E02046FEF76A
:103BC00081FE237B94F836208DF80C208DF80D3083
:103BD0008DF80E80811903A800F066FD01350336CB
:103BE0002046FEF771FE8542E8DB104D2846297815
:103BF00000F012FC00230093384621461A46FFF7D6
:103C000099F92846297800F007FCA368032B07D10F
:103C100094F8373083F0010384F837300023A36031
:103C2000A3680133A36004B0BDE8F081D4A4FF1FF2
:103C30002DE9F0418AB00C460020496900F09EFF52
:103C400005465B4B1B6813F0010F10D1584801F07B
:103C50007BF860B1236993FBF5F2564B1B68009328
:103C60000099554B19605A60514801F073F8514B57
:103C70001B6802930299504B1A688A1A5B689A4231
:103C80003AD34C4B1B680193019A4B4B1A60002DA1
:103C900032DD00264FF0FF08484F2046FEF712FEA7
:103CA0006169314401EB41010144237B94F83520E3
:103CB0008DF818208DF819308DF81A8006A800F0BC
:103CC000F3FC2046FEF7FEFD6169891B01EB410113
:103CD0000144237B94F835208DF81C208DF81D308D
:103CE0008DF81E8007A800F0DFFC3846397800F018
:103CF00093FB0136AE42D0D1314B1B6813F0010F5C
:103D000010D12F4801F020F860B1236993FBF5F240
:103D1000284B1B68039303992A4B19605A60284863
:103D200001F018F8234B1B6805930599254B1A6879
:103D30008A1A5B689A4237D31E4B1B680493049A15
:103D4000204B1A60002D2FDD00271C4E2046FEF769
:103D5000B9FD6169294401EB41010144237B94F8D9
:103D600035208DF820208DF821308DF8227008A89C
:103D700000F09AFC2046FEF7A5FD6169491B01EBA6
:103D800041010144237B94F835208DF824208DF8DF
:103D900025308DF8267009A800F086FC3046317871
:103DA00000F03AFB013DD1D10AB0BDE8F08100BF7F
:103DB00090A4FF1F00A5FF1F98A4FF1FD4A4FF1FFE
:103DC00094A4FF1FA0A4FF1FF0B583B005460C46C6
:103DD0000020642100F0D2FE5A2811DD2046FEF7B3
:103DE00071FD0146237B94F835208DF800208DF875
:103DF0000130FF238DF80230684600F055FC10E0DA
:103E00002046FEF75FFD0146237B94F835208DF8B0
:103E100004208DF8053000238DF8063001A800F04D
:103E200043FC28462146FFF74FF8002601251AE0FB
:103E30002046FEF747FD05EB4507236B9B591B68A2
:103E4000C3552046FEF73EFD3844236B9B595B6803
:103E500043702046FEF736FD3844236B9B599B6820
:103E60008370013504362046FEF72EFD8542DFDBE8
:103E700094F835300B3384F8353003B0F0BD00BF13
:103E800008B5064B1A79064B1A7001F037F8054B46
:103E900018600022044B1A7008BD00BFC4A4FF1FA5
:103EA0001F800040C0A4FF1FBCA4FF1F10B5044624
:103EB00000F080FD204610BD10B4064C218006495C
:103EC0000A60064A1360064B9DF804201A705DF8DC
:103ED000044B7047AAA4FF1FACA4FF1FB8A4FF1F88
:103EE000A8A4FF1F38B50546A34B1C8804EB440467
:103EF000E400A24B18680021224604F033F9A04BDD
:103F0000186820B10021224604F02CF903E09B4BF5
:103F10001A689B4B1A60FF229A4B1A6002200121FB
:103F200000F0ACFF0E20012100F0A8FF07200121C6
:103F300000F0A4FF0820012100F0A0FF06200121CD
:103F400000F09CFF1420012100F098FF15200121B2
:103F500000F094FF0520012100F090FF8A4B1B78B0
:103F600003F0F003102B03D0202B09D06BB903E032
:103F700032232B8085480BE032232B80844807E0D6
:103F80004FF496732B80824802E032232B808048C6
:103F9000804A00211160804B1960430803F1377398
:103FA00003F5D843B3FBF0F35D1E7C4805600820A1
:103FB000106069227A48026008300260C3EB031087
:103FC000C0F39710774A1060B02202FB03F31B0A7C
:103FD000754A1360754A764B1A60764B1A681068FA
:103FE000754810601B6819715971D971197359732B
:103FF0009973D9731A69714A1A6119755975022230
:104000009A71197659769976D97601221A7259726F
:104010009972D972B3F9142012B101221A75597527
:10402000DA8822F4E06222F4E06222F00702DA8009
:10403000B4F5004F15D2B4F5007F05D3A2B2D98BE9
:10404000DA83D98ADA820CE0D98BA2B201F47E41FC
:10405000D88B1143D983D98A01F47E41D88A0A4387
:10406000DA829A8B92B2998B002142F008029A83ED
:10407000424B1868524B1A68156810601B68012281
:104080001A715971D9711A7259729972D972624240
:10409000DA60A0B2DA8BD883DD8AD8821A69494AFD
:1040A0001A611975597502229A711976597699769D
:1040B000D976B3F9142012B101221A755975DA882C
:1040C00022F4E06222F4E06222F00702DA80B4F522
:1040D000004F13D2B4F5007F04D3DA8BD883D98A8A
:1040E000D8820BE0DA8B02F47E42D98B0243DA836A
:1040F000DA8A02F47E42D98A0243DA829A8B92B239
:10410000998B002142F008029A832F4B1A68156898
:10411000294D15601B6819715971D971197359733B
:104120009973D9731A69174A1A6119755975022258
:104130009A71197659769976D97601221A7259723E
:104140009972D972B3F9142012B101221A755975F6
:10415000DA8822F4E06222F4E06222F00702DA80D8
:10416000B4F5004F3ED2B4F5007F2FD3DA8BD8835D
:10417000DA8AD88236E000BFAAA4FF1FACA4FF1FD2
:10418000B8A4FF1FC8F00F40A8A4FF1F801A0600A4
:1041900000350C0000800B4004800B4008800B4071
:1041A0000C800B4010800B4018800B400003010076
:1041B00048A00440B0A4FF1F6887FF1FC4F00F4051
:1041C000CCA4FF1FC0F00F40C4A4FF1FDA8B02F481
:1041D0007E42D98B0243DA83DA8A02F47E42D98A9C
:1041E0001043D8829A8B92B2998B002042F0080239
:1041F0009A839A8B92B2998B42F002029A83194A5F
:10420000137903F1804303F504331870B221197058
:1042100015490B7903F1804303F504331870A22488
:104220001C70124C237903F1804303F5043318709A
:10423000A3201870204600F0D7FB227902F110016C
:104240000B480C4B43F8210053119B0003F16043D2
:1042500003F5614302F01F02012101FA02F21A6024
:1042600038BD00BFB0A4FF1FCCA4FF1FC4A4FF1F14
:10427000813E00000082FF1F38B505462A4A1378A8
:1042800013F0FF0FFBD1294B1968294B18688142A5
:1042900006D0284B1B8803EB4302D20000F080FCC1
:1042A000254C00F02BFE2368C01A2A889042F8D3D0
:1042B0002823224A136008321360012000F040FED8
:1042C0001F4B1B6872B61F490A689342FCD21D49F6
:1042D0000A689342FCD31B490A689342FCD81A4AE5
:1042E000002313600121104B19704FF48021174BEC
:1042F000196003F5DB2303F26C732820186019683A
:10430000692119600833186018681960104B197911
:10431000104B1970104909791970104909791970F1
:104320000823136062B638BDBCA4FF1FB8A4FF1FEA
:10433000ACA4FF1FAAA4FF1FC0A4FF1F0C800B404A
:1043400018800B4004800B4000800B40A0A004406C
:10435000B0A4FF1F1B800040CCA4FF1FC4A4FF1FFC
:1043600070B5104E3046002100F0C6FA0E4D0F4CCD
:1043700030462946224603F011FC0D4E30460021FE
:1043800000F0BAFA30462946224603F007FC094EEF
:104390003046002100F0B0FA30462946224603F0AC
:1043A000FDFB70BDB0A4FF1FAD3E00006087FF1F86
:1043B000CCA4FF1FC4A4FF1FFF2202700022428072
:1043C000C2604FF0FF328260704700BF30B482B0ED
:1043D0000E4A13685C1C14608B4214DB0C4A136891
:1043E0000093009D4FF47A7101FB04F4094B1968A6
:1043F000691AB4FBF1F14180002004490860126899
:104400000192019A1A6002B030BC7047E8A4FF1F05
:1044100000A5FF1FF0A4FF1F2DE9F04F83B08046D9
:104420008A462E4CD8F804303BB100F067FD236873
:10443000C01AD8F804209042F4D300F05FFD274B57
:104440001860D8F80C3023B15046D8F808109847B7
:104450008246234B1C68002C39D0002694F8129019
:10446000B8F80230632B98BFA6742368D3F804C051
:10447000616862698DF804608DF805608DF80660EA
:10448000BAF1000F1BD004F10B05334604F10C0BFD
:1044900015F8017FCBEB050E04F10F001EF80000AC
:1044A00057B148B1013700FB07770AFB07F0000C52
:1044B0000DF1040E03F80E000133032BE8D1204662
:1044C00001ABE04784F81290A468002CC6D14046A6
:1044D0001921FFF77BFF03B0BDE8F08FECA4FF1FAD
:1044E000E4A4FF1F4AB181B1084B93FBF1F143688B
:1044F0008B422CBF43604160704721B1034B93FB5B
:10450000F1F14160704700234360704740420F0063
:10451000F8B504460F4615461E1EDCBF164600259C
:1045200003689B68984705EB45052F446760666103
:1045300023685B6920469847014603480122FFF73C
:10454000D1FF2046F8BD00BFD4A4FF1F0020704754
:1045500008B50248FFF730FF08BD00BFD4A4FF1F15
:1045600070B582B01D468DF80420FF238DF806300B
:10457000F0238DF8053000290FDD044601EB4101E1
:10458000461801A8214600F08FF89DF804202A441F
:104590008DF804200334B442F3D102B070BD00BFE3
:1045A00010B4C9B103460330013989B201EB4101AE
:1045B00008440132197802FB01F109121970597887
:1045C00001FB02F109125970997801FB02F10912FD
:1045D000997003338342EDD15DF8044B704700BFFF
:1045E00008B5D243D2B2FFF7DBFF08BD2DE9F001D9
:1045F00016090F4606EB4604214412F00F0244D080
:104600009DF81440002C44D13FE0CF1C120182F0F1
:10461000FF06013606FB08F8C8F30728511C3D7851
:1046200001FB05F508EB2525EDB204FB06F2C2F30C
:1046300007227C7804FB01F402EB2424E4B20CFB97
:1046400006F6C6F30726BA7802FB01F206EB222231
:10465000D2B2FF2B15D08BB10133DBB21DB103FBFE
:104660000555C5F307251CB103FB0444C4F3072417
:104670003AB103FB0222C2F3072202E000221446F1
:1046800015460570447082700BE00D784C788A787E
:10469000DFE791F800804C7891F802C00F2EB4D17A
:1046A000B4E7BDE8F001704730B40278457884780B
:1046B00002F01F00C000562303FB00F31B0A12F098
:1046C000800F22D112F0400F0DD112F0200F05D132
:1046D00083F0FF0000221A46002340E05533DAB28F
:1046E0000023AB203BE012F0200F09D1AB2202FBEC
:1046F00000F00012101AC0B2563BDAB200232EE0CE
:104700000022DA43D2B2002029E012F0400F14D187
:1047100012F0200F0BD10023AB2303FB00F0000AA3
:104720001A1AD2B200F15503DBB2002017E00022C2
:10473000DA431846D3B2002211E012F0200F07D15D
:1047400003F15500C0B20022C3F1AB03DBB206E0B7
:10475000A3F15600C0B20022C3F15503DBB2FF2D16
:104760001FD0DDB118B105FB0000C0F307201AB15E
:1047700005FB0222C2F307221BB105FB0333C3F37F
:104780000723ED43EDB205FB0555C5F30725284486
:10479000C0B22A44D2B22B44DBB202E0FF231A4655
:1047A0001846FF2C1CD004FB04F52D12002C0CBF66
:1047B0002C466C1C14F0FF040FD018B104FB000051
:1047C000C0F307201AB104FB0222C2F307223BB157
:1047D00004FB0333C3F3072302E000231A46184601
:1047E00008704A708B7030BC704700BF30B583B022
:1047F00004460D46426000238360064B1B6801930C
:10480000019B0360084600F02BFB20736573204674
:1048100003B030BD00A5FF1F007B704710B582B00C
:104820000446407B00F01CFB237B834210D00B4BE3
:104830001B680093009A2368D21A63689A4209D3CE
:10484000064B1B680193019B23602073012002E04B
:10485000002000E0002002B010BD00BF00A5FF1F37
:1048600010B582B00446FFF7D9FF034620B10023FC
:10487000A3600123A37315E0A2688AB10B490968FC
:10488000009100982168411A8A4209D8074B1B6899
:104890000193019B23600023A3600123A37301E024
:1048A0000022A273184602B010BD00BF00A5FF1F72
:1048B000837B23B1007B003018BF012070470020AC
:1048C000704700BF837B2BB1007BD0F1010038BF64
:1048D0000020704700207047027902F0FC0303F1CA
:1048E000804303F50143186800BA02F00302D200C6
:1048F000D04000F00F00704730B472B699B902682A
:104900008AB103790F2B0ED827490988194111F074
:10491000010F08D003F1007303F59063B2EB431F5E
:1049200001D162B63EE0204B1D882946002341FAA2
:1049300003F212F0010F2DD1012202FA03F42543F4
:10494000194A158062B6DAB2027118490C6844F04F
:1049500002040C6004390C6844F002040C608224E8
:1049600013490C601A310A7004310A7006390A7052
:1049700007310A7003F1007303F590635B01036074
:1049800000221A605A609A60DA601A615A619A616C
:10499000DA6107E00133102BC9D162B6002303604E
:1049A0001023037130BC7047F8A4FF1F40800440FF
:1049B0000080004003790F2B10D8094A137072B69B
:1049C000084B0279012101FA02F2198821EA020258
:1049D0001A8062B61023037100230360704700BF82
:1049E0001A800040F8A4FF1FF8B506460C4615468D
:1049F0000846FFF771FF07462846FFF76DFF87421D
:104A000007D223792A7922712B7122682B682360BF
:104A10002A603046FFF760FF07462046FFF75CFF3D
:104A2000874207D233792279327123713268236841
:104A3000336022602046FFF74FFF06462846FFF707
:104A40004BFF864207D223792A7922712B71226883
:104A50002B6823602A60F8BD00B583B0054B1B8826
:104A6000ADF8043003685B6801A90222984703B0DF
:104A70005DF804FBF8870000F0B58BB0164622B94C
:104A800003681B68C9B298472FE0012A08BF0A26AD
:104A900021B930228DF82520212417E02124374622
:104AA000B1FBF6F506FB1515EDB22246092D94BFB4
:104AB00030353735EDB20DF1280E724402F8245C22
:104AC000B1FBF7F111B1013CE4B2E9E733B1013CCC
:104AD000E4B20AAB23442D2203F8242C03685B685C
:104AE00001A92144C4F1220298470BB0F0BD00BFD8
:104AF00008B50029BABF49422D2300230A22FFF737
:104B0000BBFF08BD10B4124B1968D9B1114C81FB21
:104B10000423CA18CB17C3EB22420F4800FB121222
:104B200084FB01042144C3EB21430C4800FB03F345
:104B300044F2A71000FB0230002804DA00F1004024
:104B4000013800E00648024B18605DF8044B7047DE
:104B5000FCA4FF1F5F0B4E831DF30100ECF4FFFF6D
:104B600042CE0C1F10B5044630B1FFF7CBFFB0FBAF
:104B7000F4F303FB140010BD002010BD10B5044673
:104B8000884204DA081AFFF7EDFF204410BD10BD7B
:104B900008B5FCF705FAFDF719FB01F0BDF8FAE7D7
:104BA000844641EA000313F003036DD1403A41D338
:104BB00051F8043B40F8043B51F8043B40F8043BF7
:104BC00051F8043B40F8043B51F8043B40F8043BE7
:104BD00051F8043B40F8043B51F8043B40F8043BD7
:104BE00051F8043B40F8043B51F8043B40F8043BC7
:104BF00051F8043B40F8043B51F8043B40F8043BB7
:104C000051F8043B40F8043B51F8043B40F8043BA6
:104C100051F8043B40F8043B51F8043B40F8043B96
:104C200051F8043B40F8043B51F8043B40F8043B86
:104C3000403ABDD2303211D351F8043B40F8043B26
:104C400051F8043B40F8043B51F8043B40F8043B66
:104C500051F8043B40F8043B103AEDD20C3205D336
:104C600051F8043B40F8043B043AF9D2043208D02E
:104C7000D2071CBF11F8013B00F8013B01D30B88A0
:104C800003806046704700BF082A13D38B078DD07E
:104C900010F003038AD0C3F10403D21ADB071CBF50
:104CA00011F8013B00F8013B80D331F8023B20F8BA
:104CB000023B7BE7043AD9D3013A11F8013B00F8F3
:104CC000013BF9D20B7803704B7843708B7883707B
:104CD00060467047024B1A6801321A60704700BF85
:104CE00000A5FF1F08B50D4C236813F4802F01D0D9
:104CF00000F07CFA236813F4806F01D001F0A2FD6C
:104D0000236813F4006F01D002F04EF9236813F406
:104D1000805FE9D002F006FCE6E700BF3480044083
:104D200008B5FFF7DFFF00BF1022014B1A80704764
:104D300000200540704700BF024A13681844106005
:104D4000184670476C87FF1F0078D0F1010038BF0C
:104D50000020704701230370704700BFEFF31383F7
:104D6000ABB9EFF31083ABB9EFF3058323B10F2B8E
:104D700005D9094A985C03E04FF4807000E00020F8
:104D8000EFF311833BB1834238BF184670474FF0B1
:104D9000FF30704700207047F0E300E008B502F0F4
:104DA00035FF08BD08B502F031FF08BD08B502F0B7
:104DB00035FF08BD30B40023B0FBF2F402FB14044D
:104DC0001D46092C94BF30343734E4B2CC54B0FBC8
:104DD000F2F008B10133EFE70D4400226A7093420C
:104DE00007DD885CCC5C8C54C8540132013B9A428C
:104DF000F7DB084630BC7047044B00221A600449B8
:104E00000A60044A106010221A60704714D00340F0
:104E100004D0034000D0034021281ED80F4B53F884
:104E2000303093F8802212F0FF0F08D019B1012220
:104E300083F880207047012283F800217047074BD8
:104E400003EBC000436821B11A6842F003021A6004
:104E500070471A6822F002021A607047FC8700004F
:104E6000212806D8044B53F8303093F80002C0B222
:104E700070470020704700BFFC87000021283AD807
:104E80001D4B03EBC0035B68012919D0042925D011
:104E9000194A52F83020002082F8800219B94FF4E4
:104EA00080721A607047022903D140F203121A601F
:104EB000704703290CBF4FF4817200221A607047BB
:104EC0000D4A52F83020012182F880124FF4A2726C
:104ED0001A601A6822F020021A607047064A52F8D7
:104EE0003020012182F880124FF4A2721A601A68F1
:104EF00042F020021A607047FC87000072B60C4B2B
:104F00001B680C4A12680C49096862B611F0806F80
:104F100002D0322B88BF0132C3F5BB33FF330749C0
:104F2000A1FB03039B094FF47A7000FB023070472A
:104F300018E000E000A5FF1F04ED00E0ABAAAAAA5C
:104F400038B50546FFF7DAFF044625B938BD013DFF
:104F50000AD004F57A74FFF7D1FF001BB0F57A7F11
:104F6000F5D200F0D9FEF6E738BD00BF10B5264BEC
:104F70004FF400021A604FF080721A604FF0007216
:104F80001A604FF080621A604FF000621A600020D1
:104F90001E4B18604BF6FF710433196028231C4A1E
:104FA000136008321360083213600832136008324D
:104FB000136008321360083213600832136009224C
:104FC000144C226004F580540434206004342160C1
:104FD0000434236008342360143C226004F5FE246A
:104FE000043420600C4801600C490B6008310B60F0
:104FF0000B4B1A6001F098F84FF4C870FFF7A0FF50
:1050000000F074FC10BD00BF08E100E00480034024
:105010000C8003400080034008800B400C800B4054
:1050200000800B4030B40E4B1B7843F002020D4C55
:1050300004EBC20460600C48007800280CBF882490
:10504000C82444EA0141074D45F8321080F00100C0
:10505000054A107083F00103014A137030BC704799
:105060006CA5FF1F0080FF1FE5A5FF1F10B4431EA6
:10507000032B11D872B60A4A52F8230050B1426885
:10508000074941F82320074A32F813400188611A82
:1050900022F8131062B600E000205DF8044B704760
:1050A0005CA5FF1F04A8FF1F013803280DD872B6A6
:1050B000074B53F820302BB1002001305B68002BE8
:1050C000FBD100E0002062B670470020704700BFAF
:1050D000B0A5FF1F38B572B601231B491B4C5A18E7
:1050E00012F8012C12F0080F24D09A0054F8325014
:1050F0006DB9164B03EBC20108304860144943F800
:105100003210144B1A78013A1A7062B638BD42F068
:10511000010254F832506DB90C4B03EBC201083058
:1051200048600D4943F832100A4B1A78013A1A7058
:1051300062B638BD0133052BD1D162B60022054BD2
:105140001A7000F067FC38BD588A00000080FF1F0D
:1051500088004000DAA5FF1FC800400010B4431EBD
:10516000032B37D8400140F010001C4A104472B69F
:105170001B4AD25C032A09D8DFE802F019021B059A
:105180000830022216E00830042213E0154A52F8D3
:1051900023201AB9134A42F8231003E0124A52F8A6
:1051A00023205160104A42F8231062B612E0032215
:1051B00000E005220A4CE25401F10803436000F0CC
:1051C0000803002B0CBF8823C8230A8843EA024344
:1051D000036062B65DF8044B704700BF0080FF1F9C
:1051E00018A5FF1FB0A5FF1FC0A5FF1F2DE9F84F91
:1051F000A34CDFF8E092DFF8E0A2DFF8E0B2257818
:10520000EDB215F0040F1DD09E4B1B7813F0FF0F6D
:1052100016D09D4B1B7803F0FF022BB1531EDBB25F
:10522000994A137003B900BE984B1B7803F0FF0234
:1052300033B1531EDBB2954A13700BB900F048FD31
:105240000423237015F0080F00F0E48299F8003071
:10525000DBB21D0940F021828D4D9E0805EBC6038F
:105260005A6855F83630C3F38303013B0C2B00F228
:105270001082DFE813F0CB01CB010E020E020E020A
:105280000E020E020E02E8010E020E020E020D00C8
:10529000804913680B6052684A607F4A45F836209F
:1052A00000227E490A607A490A618A6101217C4AAA
:1052B00011709BB240F28162934218D8B3F5D06F5F
:1052C0002ED2B3F5817F00F01E8106D8802B00F02E
:1052D000C980822B00F0CC8066E140F2023293421A
:1052E00000F02681B3F5A06F00F062815CE142F22C
:1052F0002102934200F0868107D8B3F5086F00F0D1
:10530000AB80B3F5106F11D04EE142F221229342EF
:1053100000F0418142F22132934200F0498143E1A1
:10532000604B5D68002D40F0188130E1594B9A7850
:10533000544B1A70564D05F180062B6A13F0800FFE
:1053400003D0686A083800F065FB0835B542F4D12F
:10535000DFF88C8100263746534AB05828B145689B
:1053600000F058FB0DB12846F9E700234E49735071
:105370004E4AB3504E4BF05828B1456800F04AFBF6
:105380000DB12846F9E7002349497350494AB35003
:1053900028F8023F484BFB5C023B032B0AD8DFE8AE
:1053A00003F0020602060022434BDA5502E0012216
:1053B000414BDA5501370436102ECDD100223F4B38
:1053C0001A7001253E4EDFF81C81314F05EB0803B2
:1053D00013F8013C06F8043B13F0080F2DD000F041
:1053E000F9FA48B1A90007EB451200F10803536030
:1053F000344A47F8312007E0AB00002247F8332059
:105400002E4B1A7801321A7000F0E4FA58B1AB0052
:1054100043F0010307EBC30100F108024A601E4A92
:1054200047F8332009E0AB0043F00103002247F8BE
:105430003320224B1A7801321A70AA0042F002017E
:10544000002347F8313042F0030247F8323001358B
:105450001D4B9E42BAD11EE20A4B1B781B4D2B708E
:105460000127AAE0194D00232B706B700227A4E0DE
:10547000084B9B88042B37D90F22154B1A70C1E0BB
:1054800080200740E4A5FF1F6DA5FF1FF8A5FF1FA3
:105490000080FF1FD0A5FF1FC800400004A5FF1F0C
:1054A000E5A5FF1F5C8A00005CA5FF1F08A5FF1F84
:1054B000B0A5FF1FC0A5FF1F18A5FF1FDAA5FF1F7E
:1054C000C420074088004000D4200740DCA5FF1F0F
:1054D000C0200740902007409420074098200740B4
:1054E00002A8FF1F588A0000A04A002111705170C5
:1054F0009F4A12F8233013F0020F5CD09B4D01231A
:105500002B70022759E09B4B9B8803F07F03042BF1
:1055100002DC984A52881AB10F22954B1A7071E03A
:10552000934A12F8231021F0020102F82310B2E18D
:10553000904B9B8803F07F03042B02DC8D4A52883A
:105540001AB10F228A4B1A705CE0894A12F82310B4
:1055500041F0020102F823109DE1864B5E889F888E
:10556000854BA3F10C02114633F80C0CB04209D163
:1055700033F80A0CB84205D1360A032E0CBF2F7837
:1055800017891AE00D690C330C32002DEBD10F2274
:10559000774B1A7036E0794B1A68794B1A60754B65
:1055A0009A78784B1A7076E10F22714B1A7029E0C5
:1055B00000273D4601E002276C4D6E4BDB889F4281
:1055C00028BF1F46402F34BF3E464026284631465E
:1055D000FFF728FD3544BF1B03D13F2E00F2608149
:1055E00010E0402F34BF3E46402628463146FFF7A4
:1055F00019FD3544BF1B01D13F2E03D9624B1D60FD
:10560000624B1F8001238AF8003042E0594B198811
:1056100042F22103994212D15D4BD81D12F8011BB1
:1056200003F8011F8342F9D15A4B1B68862B02D124
:105630000F22594B1A7000200146FFF7F3FC574B1D
:1056400045F8363025E0504B1E68BEB14F4FB7F8D5
:105650000080B8F1400F34BF45464025304629460A
:10566000FFF7E0FCC5EB08039BB23B800BB9402D74
:1056700001D1354400E00025434B1D603D4B1B88A4
:10568000B3F5A06F05D13B4B00225A709B788BF885
:10569000003001238AF80030B9E0414E9F0806EB44
:1056A000C708D8F80420A2F10800013DEDB213F0BC
:1056B000080F47D000F0AEF93A4B53F825304BB302
:1056C0005A68384941F8252003F10802C8F8042037
:1056D000354A525D032A12D8DFE802F002060A0EAC
:1056E0000321314A51550AE002212F4A515506E063
:1056F00005212D4A515502E004212B4A515518F03D
:10570000080F0CBF8822C8221B8842EA034346F8D0
:1057100037307CE0244B5B5D032B0BD8DFE803F0D4
:10572000777702060022204B5A5570E001221E4B6B
:105730005A556CE018F0080F0CBF022203221A4BD6
:105740005A5564E056F837301B0C22F8083C002B01
:1057500055D0002322F8063C42F8043C134B53F882
:1057600025302BBB114B43F8250025E0DCA5FF1F9E
:10577000C0200740D0A5FF1F688A000000A5FF1FBA
:1057800014A8FF1F08A6FF1F04A5FF1FD8A5FF1F11
:105790000BA8FF1F0CA8FF1F6DA5FF1FC80040002E
:1057A0000080FF1FB0A5FF1F18A5FF1F5CA5FF1FEE
:1057B0003F4B53F8253058603D4B43F825003D4B97
:1057C00033F8151032F8082C0A4423F8152000F09D
:1057D00001F960B100F10803C8F8043018F0080FAF
:1057E000354B364A08BF134646F837300FE00023E2
:1057F00046F83730324B1A7801321A7007E018F049
:10580000080F2D4B2D4A08BF134646F837300823A2
:105810002370F4E415F0010F22D02A4902230B7003
:105820000022294B1A70294B24481860284C5C60D0
:1058300098602848D8601A619A610D20264B18702C
:10584000FF23264803700838037018300270244A7A
:1058500013709F22234B1A7001230B70BDE8F88F41
:1058600015F0800F05D00D221B4B1A708022403B93
:105870001A7015F0020F06D0184B1A78D2B21A70AF
:105880000222083B1A7015F0100F0ED01022164B92
:105890001A70BDE8F88F00200146FFF7C3FBB1E6A0
:1058A00028460021FFF7BEFBACE6BDE8F88F00BF3D
:1058B00008A5FF1F04A8FF1FC80040008800400083
:1058C000DAA5FF1F942007406CA5FF1F0080FF1F73
:1058D0001CA5FF1F70A5FF1FC020074088200740A0
:1058E0008C200740842007408020074008B501F045
:1058F0008DFE00231B491A465A50C81842600833CF
:10590000882BF9D1184B1A6842F480221A60154B83
:10591000C3F30721154A1170C3F307411432117004
:105920001B0E04321370FF23343A137008321370C5
:10593000783A137001238432137000216C32117095
:105940007C3A137070220A4B1A704FF40072A3F263
:1059500041331A60102203F1C04303F5C8231A70C3
:1059600008BD00BF0080FF1F348004409C2007401A
:1059700049E400E008B500F0C3F808BD08B500F040
:1059800073F808BD08B500F09BF808BD08B500F035
:105990006DF908BD08B500F0C1F808BD08B50846A6
:1059A00000F058F908BD00BF08B50846114600F0E0
:1059B000D1F808BD704700BF044B00221A714FF4A4
:1059C0007A7199601A73024A1A607047E8A5FF1F3E
:1059D0001889000072B60D4B1A68B2FA82F30B2BCD
:1059E00002D962B6002070474FF00041D94022EA48
:1059F000010206490A6062B6054903EBC303DB00F6
:105A0000C8180022CA504260704700BF7087FF1F4D
:105A10000084FF1F08B50F4BC31A0F4AA2FB0313E4
:105A20001B090B2B14D80D4A12783AB10C4A127884
:105A300012F0FF0F02D0FFF74DFB08BD72B6094A06
:105A40004FF0004121FA03F311681943116062B667
:105A500008BD00BF0084FF1F398EE338DAA5FF1FA1
:105A6000E4A5FF1F7087FF1F10B5134B1B6853B9C8
:105A7000124B1B7813F0FF0F18D00320FFF7F6FA34
:105A80000D4B1860A8B10C4B186843885A1C03448E
:105A90001C7A03889A4206D3FFF7BCFF0022064B0C
:105AA0001A60204610BD4280204610BD4FF0FF30E6
:105AB00010BD4FF0FF3010BD04A6FF1FE4A5FF1F6F
:105AC00008B50D4B1B6883B90C4B1B7813F0FF0F07
:105AD00008D00320FFF7CAFA074B186028B94FF027
