:1000000000180020C1000000A10600006D060000DD
:100010006D0600006D0600006D0600006D06000014
:100020006D0600006D0600006D060000A1060000D0
:10003000A10600006D060000A10600005D0600009C
:10004000A1060000A1060000A1060000A106000014
:10005000A1060000A1060000A1060000A106000004
:10006000A1060000A1060000A1060000A1060000F4
:100070007519000009220000551D0000A1060000AE
:10008000A1060000A1060000A1060000A1060000D4
:10009000A1060000A1060000A1060000A1060000C4
:1000A00095080000A1060000A1060000A1060000BE
:1000B000A1060000A1060000A1060000A1060000A4
:1000C00038B500F0F1FA444A444B1A60444A454BB3
:1000D0001A60454A454B1A60454B0822197811426F
:1000E00002D019780A431A70424B2A221A70002350
:1000F000414A42499A188A4204D24149C9580433B4
:100100001160F5E73F4B40491A1F181D00238A4232
:1001100002D21360031CF6E73C493D4A5958101CB3
:1001200099500433C02BF7D100239A083949920023
:10013000521803211940C9001568FF248C40A543BB
:100140002C1C80258D40291C214301331160202B5C
:10015000EBD1314B8A221860304B1A70304B24227D
:100160001A70304BA0221A701A1C2F4B197888076E
:10017000FBD51978CD06FCD418780C21014008294C
:10018000FAD12A49032008702949402008701978BB
:100190008806FCD519784D06FCD52649C020800577
:1001A00008602021117019780C220A400C2AFAD11B
:1001B000214A224B1A60224A224B1A60224B072204
:1001C0001A6062B600F0E6F902F000F900F072FA87
:1001D00001F076F8FEE7C046300004F034800440B9
:1001E000823F0000388004400100000F3C80044042
:1001F00002D0074000E0074060FDFF1F58FEFF1FD0
:100200001C2700005CFEFF1F5401002000000000BE
:1002100000F9FF1F00E400E008ED00E00050064098
:1002200001400640004006400640064004400640AB
:100230000540064044800440C00005050480044099
:10024000BF5D000014E000E010E000E0FFFFFFFFF2
:10025000FFFFFFFFFFFFFFFFFFFFFFFFFFFFFFFFAE
:10026000FFFFFFFFFFFFFFFFFFFFFFFFFFFFFFFF9E
:10027000FFFFFFFFFFFFFFFFFFFFFFFFFFFFFFFF8E
:10028000FFFFFFFFFFFFFFFFFFFFFFFFFFFFFFFF7E
:10029000FFFFFFFFFFFFFFFFFFFFFFFFFFFFFFFF6E
:1002A000FFFFFFFFFFFFFFFFFFFFFFFFFFFFFFFF5E
:1002B000FFFFFFFFFFFFFFFFFFFFFFFFFFFFFFFF4E
:1002C000FFFFFFFFFFFFFFFFFFFFFFFFFFFFFFFF3E
:1002D000FFFFFFFFFFFFFFFFFFFFFFFFFFFFFFFF2E
:1002E000FFFFFFFFFFFFFFFFFFFFFFFFFFFFFFFF1E
:1002F000FFFFFFFFFFFFFFFFFFFFFFFFFFFFFFFF0E
:10030000FFFFFFFFFFFFFFFFFFFFFFFFFFFFFFFFFD
:10031000FFFFFFFFFFFFFFFFFFFFFFFFFFFFFFFFED
:10032000FFFFFFFFFFFFFFFFFFFFFFFFFFFFFFFFDD
:10033000FFFFFFFFFFFFFFFFFFFFFFFFFFFFFFFFCD
:10034000FFFFFFFFFFFFFFFFFFFFFFFFFFFFFFFFBD
:10035000FFFFFFFFFFFFFFFFFFFFFFFFFFFFFFFFAD
:10036000FFFFFFFFFFFFFFFFFFFFFFFFFFFFFFFF9D
:10037000FFFFFFFFFFFFFFFFFFFFFFFFFFFFFFFF8D
:10038000FFFFFFFFFFFFFFFFFFFFFFFFFFFFFFFF7D
:10039000FFFFFFFFFFFFFFFFFFFFFFFFFFFFFFFF6D
:1003A000FFFFFFFFFFFFFFFFFFFFFFFFFFFFFFFF5D
:1003B000FFFFFFFFFFFFFFFFFFFFFFFFFFFFFFFF4D
:1003C000FFFFFFFFFFFFFFFFFFFFFFFFFFFFFFFF3D
:1003D000FFFFFFFFFFFFFFFFFFFFFFFFFFFFFFFF2D
:1003E000FFFFFFFFFFFFFFFFFFFFFFFFFFFFFFFF1D
:1003F000FFFFFFFFFFFFFFFFFFFFFFFFFFFFFFFF0D
:10040000FFFFFFFFFFFFFFFFFFFFFFFFFEFFFFFFFD
:1004100010B5064C2378002B07D1054B002B02D0DA
:10042000044800E000BF0123237010BD58FEFF1FE9
:10043000000000001C27000008B5084B002B03D06B
:100440000748084900E000BF07480368002B03D0B5
:10045000064B002B00D0984708BDC04600000000A6
:100460001C2700005CFEFF1F58FEFF1F000000005D
:1004700008B50D20012100F031F808BD08B50121B3
:100480000D2000F00BF8642000F06AF80D20002128
:1004900000F004F8642000F063F808BD10B51A28D5
:1004A00018D80C2358430C4A835810181C7D027A24
:1004B000224205D0002901D01A710BE01A7209E01E
:1004C00043681A68002902D003210A4301E002218F
:1004D0008A431A6010BDC0461824000010B51A28BF
:1004E00018D80C2358430C4A141863688258247A8D
:1004F000012904D1117D0C431475A22205E0107D61
:10050000A0431075002902D18022520001E004228C
:10051000FF321A6010BDC0461824000010B572B634
:100520000B4B0C491A680C4B1B68096862B64801F2
:1005300004D532219142894149425B180748FA2487
:10054000801A1821A4005C4301F0D2FE201810BDCF
:1005500018E000E004ED00E074FEFF1FBF5D000046
:1005600038B5041CFFF7DAFF051C002C0ED0FFF78E
:10057000D5FF074B401B984205D9013C002C05D004
:10058000FA239B00ED1800F043FDF0E738BDC046AC
:10059000E70300001C4B8022D20510B51A608022B0
:1005A00012061A60194B002018601949194B1A4A93
:1005B000196028231360194A194C1360194A1360F3
:1005C000194A1360194A1360194A136009222260FC
:1005D000184C2060184C2160184C2360184C236084
:1005E000184C2260184C20601848016018490B60B4
:1005F00018490B60184B1A6000F0C2FC0420FFF78A
:10060000AFFF00F021FC10BD00E100E004800340DA
:10061000FFBF0000088003400C80034014800340AB
:10062000008003401C800340248003402C80034052
:100630003480034004900340089003400C90034032
:10064000149003400090034004A0034008A003401E
:100650000CA0034014A0034000A00340024B1A6802
:1006600001321A607047C04674FEFF1F10B50B4C74
:1006700023685A0301D500F00DF923685A0501D506
:1006800001F078F923681A0501D501F0BDFD236852
:10069000DA04ECD501F05EFBE9E7C04634800440A3
:1006A00008B5FFF7E3FFFFFF014B00221A60704718
:1006B000008104407047FFFFEFF31380002821D131
:1006C000EFF31082002A1FD1EFF30583002B0FD028
:1006D000101C0F2B0ED91A1C103A92080B4903203C
:1006E00092000340521883401068D840C0B201E025
:1006F00080204000EFF31182002A05D0824203D20D
:10070000101C01E0012040427047C04600E400E0B8
:10071000F0B50B4F02223B780A4E1A43D2000A4D25
:10072000B418606028788824002800D0C824090400
:100730000C43B45001225040534028703B70F0BD30
:10074000F4FEFF1F00F8FF1F7CFFFF1F431E10B5C4
:10075000052B0FD872B6084A99008858002807D090
:1007600044685B008C50054A01889C5A611A995272
:1007700062B600E0002010BDDCFEFF1F4601002035
:10078000431E0020052B09D872B6054A9B009B58D2
:10079000002B02D001305B68FAE762B67047C046B2
:1007A00038FFFF1F38B572B60123164A9A18013A6E
:1007B000127811071CD5144A5C01A5589900002D28
:1007C00005D1131908305860104BA3500AE00124DA
:1007D0002143C9008C58002C0AD1531808305860A6
:1007E0000B4B8B500B4B1A78013A1A7062B608E02B
:1007F0000133072BD9D162B6064B00221A7000F0E4
:1008000097FB38BD7026000000F8FF1F88004000ED
:10081000C800400072FFFF1F421E10B5052A30D8E5
:10082000022380001843174BC0001B1872B6164CE9
:10083000A05C032809D801F047FD1402160508330F
:10084000022011E0083304200EE0104892001458F2
:100850000F4B002C01D1115001E098584160995084
:100860000EE0032000E00520A0540A1C08325A6064
:100870008822180700D5C822098809040A431A608B
:1008800062B610BD00F8FF1F94FEFF1F38FFFF1F68
:1008900050FFFF1FF7B5B9480478061CE4B26107A2
:1008A0001DD5B74B1B78002B16D0B64A1378DBB298
:1008B000002B05D0013BDBB21370002B00D100BE32
:1008C000B14A1378DBB2002B06D0013BDBB21370C8
:1008D000002B01D100F0A0FEA84A042313700825C4
:1008E000221C2A4000D146E2A84BA94C1B78DBB25F
:1008F0001E099A08002E00D0CFE1D50065192B689B
:100900006A689806000F01380C2800D9C2E101F08E
:10091000E5FC7F017F01C101C101C101C101C1012C
:10092000C1019E01C101C101C1010D001368994FB0
:10093000526899493B6029607A609848984F994974
:10094000002501229BB23D602561A56102708B42AA
:1009500018D8D021C9008B4200D3DFE0812191401B
:100960008B4200D1B9E006D8802B00D1A0E0822BC9
:1009700000D1A2E0E8E08C4A934200D1BDE0A02281
:10098000D20014E0902109018B4215D00AD88821A9
:1009900009018B4200D0D7E0794B844C1B78161CA0
:1009A0002370D6E0824A934200D12EE1814A00268C
:1009B000934200D1CCE0C7E0764F714BBA781A7001
:1009C0006319186A000603D5586A083800F0B0FAAF
:1009D0000835C02DF4D100252E1C774FE85900288A
:1009E00005D04168019100F0A3FA0198F7E778512A
:1009F000724B734FE850E859002805D042680192C5
:100A000000F096FA0198F7E76E4B6F4AE8507300D2
:100A1000D0526E4B7851F05C0238032807D801F0B1
:100A200053FC02040204002200E001229A55013620
:100A30000435062ED1D1664F00233B700125654B4E
:100A4000EA18654B9200EB18013B1B7813701807EE
:100A500020D500F04FFA6B01002805D0E2180830CD
:100A600050605E4AE25003E0E0503B7801333B7057
:100A700000F040FA0122AB001343DB00002805D050
:100A80004549E21808305060E15003E0E0503B78FF
:100A900001333B70AB0002221A43D2000026A6505D
:100AA0000322134393400135E650072DC7D14FE091
:100AB0003E4C0226257065704BE0364FBB88062BF6
:100AC00042D83A4C46489B00257065701B181B782D
:100AD000022633423DD022703BE02E4D7F22AB8870
:100AE0001A40062A30DC6E88002E2DD13C4F9B0028
:100AF000DB191A7802218A430EE0264D7F22AB884B
:100B00001A40062A20DC6E88002E1DD1344F9B002F
:100B1000DB191A7802210A431A7019E01D4D314B76
:100B20006A88A9885C68002C0ED01888904209D188
:100B30005888884206D1120A032A01D1267808E093
:100B40001E8906E00C33EDE7254B0F221A705CE09E
:100B5000341C104FFB889E4200D91E1C371E402FAC
:100B600000D94027201C391CFFF7D2FDE419F61BE1
:100B70003AD1351C402F3BD047E0C046802007408B
:100B80007BFFFF1FF5FEFF1FD0FFFF1F90200740D8
:100B900000F8FF1F68FFFF1FC80040007CFFFF1F19
:100BA00078FEFF1F810600000203000073FFFF1F95
:100BB00021090000210A0000DCFEFF1F7CFEFF1F50
:100BC00038FFFF1F50FFFF1F4601002094FEFF1F4C
:100BD00072FFFF1F30C8011070260000880040001F
:100BE000C0200740782600004025B54200D9351CBA
:100BF000201C291CFFF78CFD6419761B01D1402DA8
:100C000003D1784D784B2C601E800122774B40E059
:100C1000774B78491F688F4216D15968764B9942B5
:100C200012D11378A92B0FD15378452B0CD193787F
:100C3000C22B09D1D3786B2B06D1704B0020052233
:100C4000011C1A70FFF764FD6D4B2B6022E0654FAD
:100C50003D68002D13D064480688341E402C00D90E
:100C60004024211C281CFFF753FD361B5E49B6B2F9
:100C70000E80002E01D1402C00D12E193E605C4B1D
:100C8000A0221988D200914204D100225A709A7889
:100C90005C4B1A700122554B61E0D200A4186068C9
:100CA000013E0838F6B22B4036D000F041F95649E3
:100CB000B0004258554B002A1BD055684550111CB6
:100CC000985D0831616003280BD801F0FDFA020439
:100CD0000608032104E0022102E0052100E00421CE
:100CE00099558823270700D5C82312881204134377
:100CF0003CE0985D032808D801F0E6FA393902048F
:100D0000002200E001229A5531E02C40624262410B
:100D10000324A41A9C552AE062880280002A20D06D
:100D20003B4D43804360B3005F593A49002F01D1E6
:100D3000585101E0CD586860C850374B7600F15AE1
:100D40005218F25200F0D6F8002804D00830606043
:100D500020070AD507E0314B20601A7801321A705B
:100D600005E02C4201D0264B00E02D4B23602D499D
:100D700008230B708FE5012004421ED01B4902237B
:100D80000B70294B264C1A70284B294D1C609C6017
:100D9000284C1A61DC609A615D60274B0D241C7041
:100DA000264CFF232370174C33702270244A137093
:100DB000244B9F221A70087013E063B2002B04DAF0
:100DC0001D4B0D221A708023337002231C4204D065
:100DD0001A4A1178C9B21170337010231C4200D026
:100DE0003370F7BD78FEFF1F70FFFF1F9420074090
:100DF00068FFFF1F2109000301000400F5FEFF1F2B
:100E0000C80040009820074038FFFF1F94FEFF1FD6
:100E1000DCFEFF1F7CFEFF1F4601002072FFFF1F4C
:100E20008800400080200740F4FEFF1F00F8FF1FED
:100E30009CFEFF1FF8FEFF1FC020074088200740D0
:100E40008C2007408420074010B500F0E3FF00220B
:100E50001A4B0021D150981808324160C82AF7D1A6
:100E6000174A80201468C00220431060180A154AEF
:100E7000C0B21070180C144AC0B21070134A1B0E86
:100E80001370134AFF231370124A13481370134A46
:100E90001370012202701248017012490A70124A3E
:100EA000116899430B1C70210B4313600F4B802278
:100EB00052041A600E4B10221A7010BD00F8FF1F6A
:100EC000348004409C200740B0200740B4200740F5
:100ED00080200740882007409420074010200740CA
:100EE000002107408420074018E400E000E100E012
:100EF0000821074038B572B60B4C2568281C01F054
:100F000047FA0B2802D962B600200CE080231B06AA
:100F1000C3409D43256062B648235843034B1818CD
:100F200000230360436038BD60FDFF1F00FAFF1F10
:100F300010B5041C0E484821201A01F0D9F90B28DD
:100F400015D80C4B1B78002B07D00B4B1B78002BB4
:100F500003D0201CFFF726FC09E072B68022074B65
:100F60001206C240101C1A681043186062B610BD09
:100F700000FAFF1F72FFFF1F7BFFFF1F60FDFF1FB7
:100F80001B4B1C4A19781C4B082901D1002102E097
:100F90000A2903D138211160132206E00C2901D15E
:100FA000342100E03C21116012221A60134B1A78A0
:100FB000134B002A01D0002200E001221A60114BDD
:100FC0001A78114B012A01D880220CE0042A01D89A
:100FD000842208E0082A01D8852204E0102A01D8DA
:100FE000862200E087221A60084B01221A7070479F
:100FF00064FDFF1F08B003400CB003407EFFFF1FDD
:1010000020B0034065FDFF1F24B003407DFFFF1F9C
:1010100010B5104C2378002B1BD10123237000F056
:101020002BFA002801D000F032F800F051FC002823
:1010300001D000F035F901F095F8002801D000F05A
:10104000BCF900F035FE002801D000F01AF90023A9
:10105000237010BD7FFFFF1F08B500F00DFA08BD1B
:1010600008B500F0B9F908BD08B500F0E3F908BD0E
:1010700008B500F0ABFA08BD08B5081C00F09CFAF2
:1010800008BD08B5081C111C00F020FA08BD704707
:10109000044B00221A711A73FA21034A89009960DD
:1010A0001A60704780FFFF1F6825000008B50368BD
:1010B000C9B21B68984708BD08B50368C9B21B6868
:1010C000984708BD08B50368C9B21B68984708BDB2
:1010D00008B50368C9B21B68984708BD08B503681E
:1010E000C9B21B68984708BD08B50368C9B21B6838
:1010F000984708BD08B50368C9B21B68984708BD82
:1011000008B50368C9B21B68984708BD08B5044B09
:101110004808C01801F0ECF800F09EFA08BDC0467F
:10112000C0C62D0010B5064B4808C018141C01F0AD
:10113000DFF800F091FA201C00F0D4FA10BDC04690
:10114000C0C62D0008B500F0F5FA08BD08B5081CAA
:1011500000F01EFB08BD08B500F0BAFB08BD08B5DD
:1011600000F0E2FB08BD08B500F0C2FB08BD08B501
:1011700000F090FB08BD08B500F0F2FB08BD08B513
:1011800000F094FB08BD08B5081C00F023FB01200B
:1011900008BD08B5081C00F01DFB012008BD10B5F6
:1011A000081C141C111C00F069FB201C10BD38B574
:1011B000081C0D1C00F068FE041C211C281C00F0FB
:1011C0005DFB201C38BDFFFF08B5044B4808C01864
:1011D00001F08EF800F02EFC08BDC04660E316005A
:1011E00010B5064B4808C018141C01F081F800F037
:1011F00021FC201C00F066FC10BDC04660E3160018
:1012000008B500F087FC08BD08B5081C00F0B0FC6C
:1012100008BD08B500F04CFD08BD08B500F074FD30
:1012200008BD08B500F054FD08BD08B500F022FD6A
:1012300008BD08B500F084FD08BD08B500F026FD26
:1012400008BD08B5081C00F0B5FC012008BD08B5B4
:10125000081C00F0AFFC012008BD10B5081C141CD0
:10126000111C00F0FBFC201C10BD38B5081C0D1C27
:1012700000F00AFE041C211C281C00F0EFFC201CBE
:1012800038BD7047044B00221A711A73FA21034AC1
:10129000890099601A60704790FFFF1F8825000041
:1012A0007047FFFF044B00221A711A73FA21034A98
:1012B000890099601A607047A0FFFF1FD8250000C1
:1012C00008B5FFF7D5F8FFF7D9F8FFF7A1FEFAE761
:1012D00008B50368C9B21B68984708BD08B503681C
:1012E000C9B21B68984708BD08B50368C9B21B6836
:1012F000984708BD08B50368C9B21B68984708BD80
:1013000008B5044B4808C01800F0F2FF00F0ECFDEF
:1013100008BDC04660E3160010B5064B4808C0186B
:10132000141C00F0E5FF00F0DFFD201C00F024FE9F
:1013300010BDC046C0C62D0008B500F045FE08BD72
:1013400008B5081C00F06EFE08BD08B500F00AFFE5
:1013500008BD08B500F032FF08BD08B500F012FF67
:1013600008BD08B500F0E0FE08BD08B500F042FF7A
:1013700008BD08B500F0E4FE08BD08B5081C00F083
:1013800073FE012008BD08B5081C00F06DFE0120A9
:1013900008BD10B5081C141C111C00F0B9FE201C5F
:1013A00010BD38B5081C0D1C00F06EFD041C211C7E
:1013B000281C00F0ADFE201C38BD7047044B0022F5
:1013C0001A711A73FA21034A890099601A607047EA
:1013D000B0FFFF1F2826000070B5144B1B78002BB0
:1013E00020D0134C2368261C002B03D10220FFF7CA
:1013F000ADF920602068002814D04388C218157AFF
:10140000002D0BD002880133934204D3FFF790FDE7
:101410000023336000E04380281C05E0FFF788FDCF
:101420002560DAE70125684270BDC0467BFFFF1FDB
:10143000CCFFFF1F38B50E4B1B78002B13D00D4C83
:101440002368002B03D10220FFF780F92060206879
:10145000002808D04388C3181D7A002D06D1FFF755
:1014600067FD2560E7E70120404200E0281C38BD09
:101470007BFFFF1FCCFFFF1F38B5124D2B68002BE1
:1014800004D0286800240288438811E00E4B1B78A2
:10149000002B03D00220FFF759F928602C68002C9C
:1014A000EFD10DE0C1180919097A002903D00134E0
:1014B000E1189142F6DB002C02D1FFF739FD2C60D8
:1014C000201C38BDCCFFFF1F7BFFFF1FF7B5344D3D
:1014D0000123071C0C1C2B70002C5DD0314E306892
:1014E00000282BD1304A0192304B1B78DBB2002B05
:1014F0001AD00120FFF744F9052806D9019B2C4A90
:10150000013B0193002B09D10BE001232B70FFF766
:10151000F1FC244A10600028F0D00FE01378002B73
:1015200006D001231370002301202B70404235E0C8
:101530002B70FFF76DFD01232B70D5E71C4B0022AC
:1015400031681A704B884020C01A0094844200D938
:101550000090181C08300818019000981B184B8048
:10156000241A0023009A934204D0FA5C0198C254D2
:101570000133F7E74A88FF180E4B3F2A02D80522AD
:101580001A70A9E7402200200A8018700120FFF796
:1015900043F9002232609FE72C70201CFEBDC0463C
:1015A000C0FFFF1FC4FFFF1FB51E00007BFFFF1F12
:1015B000C8FFFF1FD0FFFF1F07B56B46D871073369
:1015C000181C0121FFF782FF0EBDFFFF38B50F4B3E
:1015D0001B78002B19D00E4C2168002915D04A88A1
:1015E000002A12D00B480023037098183F2805DC0E
:1015F0008818C018002505720133F6E740230B80D8
:101600000120FFF709F90023236038BD7BFFFF1F8E
:10161000C4FFFF1FD0FFFF1F38B50D4B1B78DBB297
:10162000002B13D10B480168041C4A8898183F28E6
:1016300005DC8818C018002505720133F6E7402341
:101640000B800120FFF7E8F80023236038BDC04677
:10165000C0FFFF1FC4FFFF1F164B80221968D20076
:101660000A431A60144A00231370144A1449137071
:10167000144A1370144A1370144A1370144A1160F8
:10168000144AD12189001160134AC104C90EC0B2A5
:101690001170507093702C23D370104BFF22196877
:1016A00091430A1C40210A431A600D4B80225201CB
:1016B0001A6070473480044054000020D2FFFF1F9E
:1016C000130300005C00002055000020D1FFFF1F25
:1016D00040A0044044A0044000A006400CE400E008
:1016E00000E100E010B5124B1322997891430322D8
:1016F00002400A43410701D510210A439A700F2284
:101700000B490240042A03D18A79402422438A717A
:101710005A7910218A43084200D00A435A719A79B3
:1017200010218A43840600D50A439A7110BDC04631
:1017300000A0064008B50E4B1B685A0517D50D4B87
:101740001B78DBB2002B02D0FFF762FCF7E70A4AF6
:10175000802149011160094A0949D3700422FF32EE
:101760000A6008490A60084A1370084A137008BDE5
:1017700034800440D1FFFF1F80E100E000A006405C
:1017800040A0044044A0044054000020D2FFFF1FAA
:1017900038B5041C0B4B1D78EDB2002DFAD1201C7E
:1017A0000121FEF79BFE291C201CFEF777FE0C2270
:1017B0005443054B054AE1581C191160044B227A29
:1017C0001A7038BDD1FFFF1F1824000058000020F8
:1017D00053000020F8B5214B071C1B685A053BD568
:1017E0001F4B1B68002B02D01E4A12781A711E4E26
:1017F000002334783F220134A2425B415B421C400B
:101800001A4D2B78A3421CD1FEF756FF402813DC5B
:10181000174A13795BB2002BF2DA2B7800210133DF
:101820003F209842494149420B401249C95CDBB212
:10183000C9B2D1712B70E3E7FF28E1DDFFF7E8FBC8
:10184000DEE70C4BFFB21F550B4B01221A70084B01
:10185000E4B2AC223470DA70F8BDC0463480044083
:1018600058000020530000205C000020550000209C
:1018700000A00640D3FFFF1FD1FFFF1F38B5041C97
:101880004518AC4204D02078FFF7A4FF0134F8E7F4
:1018900038BDFFFF08B5044B1B78002B02D0FFF7C3
:1018A000B7FBF8E708BDC046D1FFFF1F064B074A4C
:1018B0001B781078DBB2C0B2834201D33F3000E026
:1018C0000138C01A7047C0465C0000205500002057
:1018D000054B1878054BC0B21B78DBB2984200D29A
:1018E0004030C01A7047C04654000020D2FFFF1F8E
:1018F0000A4B0B4A19781378DBB299420BD00133AB
:101900003F2000219842494149420B400549C85CAB
:10191000DBB2137001E00120404270475400002008
:10192000D2FFFF1F130000200A4B1A780A4B1B78C6
:10193000DBB29A420AD0013300223F219942524140
:1019400052421340054AD05CC0B201E0012040423F
:101950007047C04654000020D2FFFF1F1300002034
:10196000024B1A78024BD2B21A707047D2FFFF1F97
:101970005400002030B5254A1379990612D5244920
:10198000D4790B78002001333F259D4240414042ED
:1019900003402048E4B20078834203D01E48C45478
:1019A000DBB20B70D178194CC9B24BB2002B1ADAEA
:1019B00023795BB2002B16DA184B19481D7803788F
:1019C000DBB29D4202D16C23E3700CE001330024B2
:1019D0003F259D42644164422340124CE45CDBB2EB
:1019E000E4B2D4710370402319420ED01179194228
:1019F0000BD00D4B002119700C4B1B688B4202D091
:101A00000B49097819722C23D37030BD00A0064011
:101A100054000020D2FFFF1F130000205C000020B4
:101A200055000020D3FFFF1FD1FFFF1F58000020EB
:101A300053000020164B8022196852010A431A6095
:101A4000144A00231370144A14491370144A137073
:101A5000144A1370144A1370144A1160144AD121A5
:101A600089001160134AC104C90EC0B211705070D0
:101A700093702C23D370104B104A19680A408021B0
:101A8000C9030A431A600E4B8022D2011A607047C4
:101A900034800440C80000205E00002013030000D2
:101AA000D0000020C90000205D00002008C00440D4
:101AB0000CC0044000C006400CE400E0FFFF00FF43
:101AC00000E100E010B5124B1322997891430322F4
:101AD00002400A43410701D510210A439A700F22A0
:101AE0000B490240042A03D18A79402422438A7197
:101AF0005A7910218A43084200D00A435A719A79D0
:101B000010218A43840600D50A439A7110BDC0464D
:101B100000C0064008B50E4B1B68DA0417D50D4B04
:101B20001B78DBB2002B02D0FFF772FAF7E70A4A04
:101B30008021C9011160094A0949D3700422FF328A
:101B40000A6008490A60084A1370084A137008BD01
:101B5000348004405D00002080E100E000C00640C9
:101B600008C004400CC00440C80000205E000020F3
:101B700038B5041C0B4B1D78EDB2002DFAD1201C9A
:101B80000121FEF7ABFC291C201CFEF787FC0C2270
:101B90005443054B054AE1581C191160044B227A45
:101BA0001A7038BD5D00002018240000CC00002011
:101BB000C7000020F8B5214B071C1B68DA043BD591
:101BC0001F4B1B68002B02D01E4A12781A711E4E42
:101BD0000023347827220134A2425B415B421C403F
:101BE0001A4D2B78A3421CD1FEF766FD402813DC6A
:101BF000174A13795BB2002BF2DA2B7800210133FC
:101C000027209842494149420B401249C95CDBB246
:101C1000C9B2D1712B70E3E7FF28E1DDFFF7F8F9D6
:101C2000DEE70C4BFFB21F550B4B01221A70084B1D
:101C3000E4B2AC223470DA70F8BDC046348004409F
:101C4000CC000020C7000020D0000020C9000020E8
:101C500000C006405F0000205D00002038B5041C75
:101C60004518AC4204D02078FFF7A4FF0134F8E710
:101C700038BDFFFF08B5044B1B78002B02D0FFF7DF
:101C8000C7F9F8E708BDC0465D000020064B074ACB
:101C90001B781078DBB2C0B2834201D3273000E05A
:101CA0000138C01A7047C046D0000020C90000208B
:101CB000054B1878054BC0B21B78DBB2984200D2B6
:101CC0004030C01A7047C046C80000205E000020A7
:101CD0000A4B0B4A19781378DBB299420BD00133C7
:101CE0003F2000219842494149420B400549C85CC8
:101CF000DBB2137001E0012040427047C8000020B1
:101D00005E000020870000200A4B1A780A4B1B78DF
:101D1000DBB29A420AD0013300223F21994252415C
:101D200052421340054AD05CC0B201E0012040425B
:101D30007047C046C80000205E00002087000020D9
:101D4000024B1A78024BD2B21A7070475E00002024
:101D5000C800002030B5254A1379990612D52449C8
:101D6000D4790B78002001333F259D424041404209
:101D700003402048E4B20078834203D01E48C45494
:101D8000DBB20B70D178194CC9B24BB2002B1ADA06
:101D900023795BB2002B16DA184B19481D780378AB
:101DA000DBB29D4202D16C23E3700CE001330024CE
:101DB00027259D42644164422340124CE45CDBB21F
:101DC000E4B2D4710370402319420ED01179194244
:101DD0000BD00D4B002119700C4B1B688B4202D0AD
:101DE0000B49097819722C23D37030BD00C006400E
:101DF000C80000205E00002087000020D0000020E6
:101E0000C90000205F0000205D000020CC00002001
:101E1000C70000201FB572B6154B70221A70154A04
:101E200041211170144A0F21117080221A701A7802
:101E300052B2002AFBDA114B186862B6104B984276
:101E400001D80A23584301AC211C0A2200F025F8CE
:101E50000023E15C0B4A002905D05800101801331B
:101E600041800A2BF5D101335B0013701FBDC046C2
:101E70000000024007000240060002400800024045
:101E80007F96980040FEFF1F021C031C981A013326
:101E9000591E09780029F9D17047F8B5061C0D1CA8
:101EA000171C0024301C391C00F066FA092901D8DF
:101EB000303100E03731C9B22955301C391C00F0EF
:101EC00017FA061E01D00134ECE72B1958702B1CB1
:101ED0005A1BA24206DA1A78295D19702A55013375
:101EE000013CF5E7281CF8BD164B80221968120149
:101EF0000A431A60144A00231370144A14491370D9
:101F0000144A1370144A1370144A1370144A11605F
:101F1000144AD12189001160134AC104C90EC0B20C
:101F20001170507093702C23D370104B104A1968A5
:101F30000A408021C9010A431A600E4B8022920197
:101F40001A607047348004403C010020D200002019
:101F500013030000440100203D010020D1000020B7
:101F60000CB0044010B0044000B006400CE400E0A7
:101F7000FF00FFFF00E100E010B5124B132299783B
:101F80009143032202400A43410701D510210A432D
:101F90009A700F220B490240042A03D18A79402407
:101FA00022438A715A7910218A43084200D00A4399
:101FB0005A719A7910218A43840600D50A439A718E
:101FC00010BDC04600B0064008B50E4B1B681A0590
:101FD00017D50D4B1B78DBB2002B02D0FFF718F89A
:101FE000F7E70A4A802189011160094A0949D3703B
:101FF0000422FF320A6008490A60084A1370084A3E
:10200000137008BD34800440D100002080E100E05E
:1020100000B006400CB0044010B004403C01002069
:10202000D200002038B5041C0B4B1D78EDB2002DFA
:10203000FAD1201C0121FEF751FA291C201CFEF7C1
:102040002DFA0C225443054B054AE1581C19116026
:10205000044B227A1A7038BDD100002018240000E9
:10206000400100203B010020F8B5214B071C1B68F4
:102070001A053BD51F4B1B68002B02D01E4A127855
:102080001A711E4E0023347827220134A2425B418C
:102090005B421C401A4D2B78A3421CD1FEF70CFB6F
:1020A000402813DC174A13795BB2002BF2DA2B7845
:1020B0000021013327209842494149420B401249EF
:1020C000C95CDBB2C9B2D1712B70E3E7FF28E1DD57
:1020D000FEF79EFFDEE70C4BFFB21F550B4B0122B4
:1020E0001A70084BE4B2AC223470DA70F8BDC04606
:1020F00034800440400100203B01002044010020C6
:102100003D01002000B00640D3000020D100002097
:1021100038B5041C4518AC4204D02078FFF7A4FF62
:102120000134F8E738BDFFFF08B5044B1B78002BDE
:1021300002D0FEF76DFFF8E708BDC046D1000020D1
:10214000064B074A1B781078DBB2C0B2834201D33A
:10215000273000E00138C01A7047C0464401002013
:102160003D010020054B1878054BC0B21B78DBB24F
:10217000984200D24030C01A7047C0463C0100204F
:10218000D20000200A4B0B4A19781378DBB299422F
:102190000BD001333F2000219842494149420B4076
:1021A0000549C85CDBB2137001E001204042704772
:1021B0003C010020D2000020FB0000200A4B1A78CE
:1021C0000A4B1B78DBB29A420AD0013300223F212E
:1021D0009942524152421340054AD05CC0B201E0DC
:1021E000012040427047C0463C010020D200002040
:1021F000FB000020024B1A78024BD2B21A707047D3
:10220000D20000203C01002030B5254A1379990600
:1022100012D52449D4790B78002001333F259D4203
:102220004041404203402048E4B20078834203D05A
:102230001E48C454DBB20B70D178194CC9B24BB2F2
:10224000002B1ADA23795BB2002B16DA184B1948E7
:102250001D780378DBB29D4202D16C23E3700CE061
:102260000133002427259D42644164422340124CDF
:10227000E45CDBB2E4B2D4710370402319420ED0A7
:10228000117919420BD00D4B002119700C4B1B68B2
:102290008B4202D00B49097819722C23D37030BDC0
:1022A00000B006403C010020D2000020FB000020CE
:1022B000440100203D010020D3000020D100002077
:1022C000400100203B01002002B47146490849004A
:1022D000095C49008E4402BC7047C04603B4714695
:1022E000490840004900095A49008E4403BC704720
:1022F000002934D00123002210B488422CD30124B9
:102300002407A14204D2814202D209011B01F8E74D
:10231000E400A14204D2814202D249005B00F8E706
:10232000884201D3401A1A434C08A04202D3001B32
:102330005C0822438C08A04202D3001B9C08224365
:10234000CC08A04202D3001BDC082243002803D0A3
:102350001B0901D00909E3E7101C10BC70470028D5
:1023600001D00020C04307B4024802A140180290E7
:1023700003BDC046190000000029F0D003B5FFF7E7
:10238000B9FF0EBC4243891A1847C0467047C04681
:102390001C2101231B04984201D3000C10391B0A95
:1023A000984201D3000A08391B09984201D3000959
:1023B000043902A2105C40187047C04604030202B0
:1023C00001010101000000000000000070B50E4B8B
:1023D0000E4D0024ED1AAD101E1CAC4204D0A3001B
:1023E000F35898470134F8E700F088F9084B094D95
:1023F0000024ED1AAD101E1CAC4204D0A300F3580B
:1024000098470134F8E770BD08270000082700004E
:10241000082700001C270000420000F840A00440EC
:1024200001000000420000F844A004400200000047
:10243000C00000F800C0044001000000000000F8E7
:102440000490044002000000000000F808900440DE
:1024500004000000C00000F81CC004408000000020
:10246000C00000F810C0044010000000C00000F8D8
:1024700008C0044004000000C00000F80CC0044084
:1024800008000000800000F80CB0044008000000C4
:10249000800000F810B0044010000000800000F838
:1024A00018B0044040000000800000F81CB0044058
:1024B00080000000800000F814B0044020000000FC
:1024C000C00000F804C0044002000000800000F8D2
:1024D00000B0044001000000400000F800A00440EB
:1024E00001000000400000F804A0044002000000C9
:1024F000400000F80CA0044008000000400000F874
:1025000008A0044004000000C00000F814C004400B
:1025100020000000C00000F818C004404000000087
:10252000800000F804B0044002000000800000F8C1
:1025300008B0044004000000020100F850D004403C
:1025400010000000020100F854D0044020000000F8
:10255000030100F878D0044040000000FFFFFFFFB7
:10256000000000000000000079100000831000004F
:102570005910000061100000691000007110000087
:102580000000000000000000431200005B12000089
:1025900013120000231200001B1200002B12000077
:1025A000C9110000E1110000011200000912000031
:1025B000331200003B120000DD100000E9100000A3
:1025C000F5100000011100006B1200004F12000016
:1025D0000000000000000000871100009F110000B3
:1025E00057110000671100005F1100006F1100001B
:1025F0000D11000025110000451100004D110000D3
:10260000771100007F110000AD100000B91000002C
:10261000C5100000D1100000AF11000093110000A0
:1026200000000000000000007B1300009313000076
:102630004B1300005B1300005313000063130000F2
:1026400001130000191300003913000041130000AA
:102650006B13000073130000D1120000DD120000A4
:10266000E9120000F5120000A31300008713000018
:10267000151915190000FFFF0001000066FDFF1F7E
:10268000120000000002000090FDFF1F4900000042
:1026900000220100D9FDFF1F2100000000210100E0
:1026A000C2FDFF1F0900000000220000FAFDFF1F0D
:1026B0001C00000000210000A2FDFF1F0900000017
:1026C000000300003CFEFF1F00000000010309049E
:1026D00078FDFF1F000000000203090416FEFF1F23
:1026E000000000000303090440FEFF1F000000007B
:1026F000000000000000000000000000F8B5C04627
:10270000F8BC08BC9E4670473904000091100000D8
:0C27100085120000A5120000BD1300009F
:10271C00FFFFFFFF0A041201000200000040C01678
:10272C0086040001010203011803540065006500D2
:10273C006E00730079006400750069006E006F0014
:10274C0009024900020100C0320904000002030022
:10275C000000092111010001221C00070583034020
:10276C0000010705040340000109040100020300F5
:10277C0000000921110100012221000705810340FD
:10278C0000010705020320000206C9FF0904A15C31
:10279C007508150026FF00954009758102952009E2
:1027AC0076910295040976B102C006ABFF0A0002CD
:1027BC00A1017508150026FF0095400901810295BD
:1027CC004009029102C026035400650065006E00AA
:1027DC00730079006400750069006E006F002000C2
:1027EC0052006100770048004900440004030904CA
:1027FC000C030000000000000000000000000000BE
:08280C000000000000000000C4
:00000001FF
